{
	"Library.sol": {
		"Library": {
			"abi": [
				{
					"inputs": [],
					"stateMutability": "nonpayable",
					"type": "constructor"
				},
				{
					"anonymous": false,
					"inputs": [
						{
							"indexed": true,
							"internalType": "uint256",
							"name": "bookId",
							"type": "uint256"
						},
						{
							"indexed": false,
							"internalType": "string",
							"name": "title",
							"type": "string"
						},
						{
							"indexed": false,
							"internalType": "string",
							"name": "author",
							"type": "string"
						},
						{
							"indexed": false,
							"internalType": "uint256",
							"name": "pricePerDay",
							"type": "uint256"
						}
					],
					"name": "BookAdded",
					"type": "event"
				},
				{
					"anonymous": false,
					"inputs": [
						{
							"indexed": true,
							"internalType": "uint256",
							"name": "bookId",
							"type": "uint256"
						},
						{
							"indexed": false,
							"internalType": "address",
							"name": "borrower",
							"type": "address"
						}
					],
					"name": "BookBorrowed",
					"type": "event"
				},
				{
					"anonymous": false,
					"inputs": [
						{
							"indexed": true,
							"internalType": "uint256",
							"name": "bookId",
							"type": "uint256"
						}
					],
					"name": "BookRemoved",
					"type": "event"
				},
				{
					"anonymous": false,
					"inputs": [
						{
							"indexed": true,
							"internalType": "uint256",
							"name": "bookId",
							"type": "uint256"
						},
						{
							"indexed": false,
							"internalType": "address",
							"name": "borrower",
							"type": "address"
						}
					],
					"name": "BookReturned",
					"type": "event"
				},
				{
					"inputs": [
						{
							"internalType": "string",
							"name": "_title",
							"type": "string"
						},
						{
							"internalType": "string",
							"name": "_author",
							"type": "string"
						},
						{
							"internalType": "uint256",
							"name": "_pricePerDay",
							"type": "uint256"
						}
					],
					"name": "addBook",
					"outputs": [],
					"stateMutability": "nonpayable",
					"type": "function"
				},
				{
					"inputs": [],
					"name": "bookCount",
					"outputs": [
						{
							"internalType": "uint256",
							"name": "",
							"type": "uint256"
						}
					],
					"stateMutability": "view",
					"type": "function"
				},
				{
					"inputs": [
						{
							"internalType": "string",
							"name": "",
							"type": "string"
						}
					],
					"name": "bookIdByTitle",
					"outputs": [
						{
							"internalType": "uint256",
							"name": "",
							"type": "uint256"
						}
					],
					"stateMutability": "view",
					"type": "function"
				},
				{
					"inputs": [
						{
							"internalType": "uint256",
							"name": "",
							"type": "uint256"
						}
					],
					"name": "books",
					"outputs": [
						{
							"internalType": "string",
							"name": "title",
							"type": "string"
						},
						{
							"internalType": "string",
							"name": "author",
							"type": "string"
						},
						{
							"internalType": "bool",
							"name": "isAvailable",
							"type": "bool"
						},
						{
							"internalType": "uint256",
							"name": "pricePerDay",
							"type": "uint256"
						}
					],
					"stateMutability": "view",
					"type": "function"
				},
				{
					"inputs": [
						{
							"internalType": "uint256",
							"name": "_bookId",
							"type": "uint256"
						}
					],
					"name": "borrowBook",
					"outputs": [],
					"stateMutability": "nonpayable",
					"type": "function"
				},
				{
					"inputs": [
						{
							"internalType": "uint256",
							"name": "_bookId",
							"type": "uint256"
						}
					],
					"name": "getPricePerDay",
					"outputs": [
						{
							"internalType": "uint256",
							"name": "",
							"type": "uint256"
						}
					],
					"stateMutability": "view",
					"type": "function"
				},
				{
					"inputs": [],
					"name": "owner",
					"outputs": [
						{
							"internalType": "address",
							"name": "",
							"type": "address"
						}
					],
					"stateMutability": "view",
					"type": "function"
				}
			],
			"devdoc": {
				"kind": "dev",
				"methods": {},
				"version": 1
			},
			"evm": {
				"assembly": "    /* \"Library.sol\":60:2413  contract Library {... */\n  mstore(0x40, 0x80)\n    /* \"Library.sol\":1295:1346  constructor() {... */\n  callvalue\n  dup1\n  iszero\n  tag_1\n  jumpi\n  0x00\n  dup1\n  revert\ntag_1:\n  pop\n    /* \"Library.sol\":1328:1338  msg.sender */\n  caller\n    /* \"Library.sol\":1320:1325  owner */\n  0x00\n  dup1\n    /* \"Library.sol\":1320:1338  owner = msg.sender */\n  0x0100\n  exp\n  dup2\n  sload\n  dup2\n  0xffffffffffffffffffffffffffffffffffffffff\n  mul\n  not\n  and\n  swap1\n  dup4\n  0xffffffffffffffffffffffffffffffffffffffff\n  and\n  mul\n  or\n  swap1\n  sstore\n  pop\n    /* \"Library.sol\":60:2413  contract Library {... */\n  dataSize(sub_0)\n  dup1\n  dataOffset(sub_0)\n  0x00\n  codecopy\n  0x00\n  return\nstop\n\nsub_0: assembly {\n        /* \"Library.sol\":60:2413  contract Library {... */\n      mstore(0x40, 0x80)\n      callvalue\n      dup1\n      iszero\n      tag_1\n      jumpi\n      0x00\n      dup1\n      revert\n    tag_1:\n      pop\n      jumpi(tag_2, lt(calldatasize, 0x04))\n      shr(0xe0, calldataload(0x00))\n      dup1\n      0x8735386c\n      gt\n      tag_10\n      jumpi\n      dup1\n      0x8735386c\n      eq\n      tag_6\n      jumpi\n      dup1\n      0x8da5cb5b\n      eq\n      tag_7\n      jumpi\n      dup1\n      0xb905ad78\n      eq\n      tag_8\n      jumpi\n      dup1\n      0xc93c26b6\n      eq\n      tag_9\n      jumpi\n      jump(tag_2)\n    tag_10:\n      dup1\n      0x04266224\n      eq\n      tag_3\n      jumpi\n      dup1\n      0x68744046\n      eq\n      tag_4\n      jumpi\n      dup1\n      0x7e490a9e\n      eq\n      tag_5\n      jumpi\n    tag_2:\n      0x00\n      dup1\n      revert\n        /* \"Library.sol\":1413:1726  function addBook(string memory _title, string memory _author, uint256 _pricePerDay) public onlyOwner {... */\n    tag_3:\n      tag_11\n      0x04\n      dup1\n      calldatasize\n      sub\n      dup2\n      add\n      swap1\n      tag_12\n      swap2\n      swap1\n      tag_13\n      jump\t// in\n    tag_12:\n      tag_14\n      jump\t// in\n    tag_11:\n      stop\n        /* \"Library.sol\":415:452  mapping(uint256 => Book) public books */\n    tag_4:\n      tag_15\n      0x04\n      dup1\n      calldatasize\n      sub\n      dup2\n      add\n      swap1\n      tag_16\n      swap2\n      swap1\n      tag_17\n      jump\t// in\n    tag_16:\n      tag_18\n      jump\t// in\n    tag_15:\n      mload(0x40)\n      tag_19\n      swap5\n      swap4\n      swap3\n      swap2\n      swap1\n      tag_20\n      jump\t// in\n    tag_19:\n      mload(0x40)\n      dup1\n      swap2\n      sub\n      swap1\n      return\n        /* \"Library.sol\":2055:2359  function borrowBook(uint256 _bookId) public {... */\n    tag_5:\n      tag_21\n      0x04\n      dup1\n      calldatasize\n      sub\n      dup2\n      add\n      swap1\n      tag_22\n      swap2\n      swap1\n      tag_17\n      jump\t// in\n    tag_22:\n      tag_23\n      jump\t// in\n    tag_21:\n      stop\n        /* \"Library.sol\":1804:2006  function getPricePerDay(uint256 _bookId) public view returns (uint256) {... */\n    tag_6:\n      tag_24\n      0x04\n      dup1\n      calldatasize\n      sub\n      dup2\n      add\n      swap1\n      tag_25\n      swap2\n      swap1\n      tag_17\n      jump\t// in\n    tag_25:\n      tag_26\n      jump\t// in\n    tag_24:\n      mload(0x40)\n      tag_27\n      swap2\n      swap1\n      tag_28\n      jump\t// in\n    tag_27:\n      mload(0x40)\n      dup1\n      swap2\n      sub\n      swap1\n      return\n        /* \"Library.sol\":84:104  address public owner */\n    tag_7:\n      tag_29\n      tag_30\n      jump\t// in\n    tag_29:\n      mload(0x40)\n      tag_31\n      swap2\n      swap1\n      tag_32\n      jump\t// in\n    tag_31:\n      mload(0x40)\n      dup1\n      swap2\n      sub\n      swap1\n      return\n        /* \"Library.sol\":612:636  uint256 public bookCount */\n    tag_8:\n      tag_33\n      tag_34\n      jump\t// in\n    tag_33:\n      mload(0x40)\n      tag_35\n      swap2\n      swap1\n      tag_28\n      jump\t// in\n    tag_35:\n      mload(0x40)\n      dup1\n      swap2\n      sub\n      swap1\n      return\n        /* \"Library.sol\":521:568  mapping(string => uint256) public bookIdByTitle */\n    tag_9:\n      tag_36\n      0x04\n      dup1\n      calldatasize\n      sub\n      dup2\n      add\n      swap1\n      tag_37\n      swap2\n      swap1\n      tag_38\n      jump\t// in\n    tag_37:\n      tag_39\n      jump\t// in\n    tag_36:\n      mload(0x40)\n      tag_40\n      swap2\n      swap1\n      tag_28\n      jump\t// in\n    tag_40:\n      mload(0x40)\n      dup1\n      swap2\n      sub\n      swap1\n      return\n        /* \"Library.sol\":1413:1726  function addBook(string memory _title, string memory _author, uint256 _pricePerDay) public onlyOwner {... */\n    tag_14:\n        /* \"Library.sol\":1148:1153  owner */\n      0x00\n      dup1\n      sload\n      swap1\n      0x0100\n      exp\n      swap1\n      div\n      0xffffffffffffffffffffffffffffffffffffffff\n      and\n        /* \"Library.sol\":1134:1153  msg.sender == owner */\n      0xffffffffffffffffffffffffffffffffffffffff\n      and\n        /* \"Library.sol\":1134:1144  msg.sender */\n      caller\n        /* \"Library.sol\":1134:1153  msg.sender == owner */\n      0xffffffffffffffffffffffffffffffffffffffff\n      and\n      eq\n        /* \"Library.sol\":1126:1206  require(msg.sender == owner, \"Seul le proprietaire peut effectuer cette action\") */\n      tag_42\n      jumpi\n      mload(0x40)\n      0x08c379a000000000000000000000000000000000000000000000000000000000\n      dup2\n      mstore\n      0x04\n      add\n      tag_43\n      swap1\n      tag_44\n      jump\t// in\n    tag_43:\n      mload(0x40)\n      dup1\n      swap2\n      sub\n      swap1\n      revert\n    tag_42:\n        /* \"Library.sol\":1525:1534  bookCount */\n      0x03\n      0x00\n        /* \"Library.sol\":1525:1536  bookCount++ */\n      dup2\n      sload\n      dup1\n      swap3\n      swap2\n      swap1\n      tag_46\n      swap1\n      tag_47\n      jump\t// in\n    tag_46:\n      swap2\n      swap1\n      pop\n      sstore\n      pop\n        /* \"Library.sol\":1566:1607  Book(_title, _author, true, _pricePerDay) */\n      mload(0x40)\n      dup1\n      0x80\n      add\n      0x40\n      mstore\n      dup1\n        /* \"Library.sol\":1571:1577  _title */\n      dup5\n        /* \"Library.sol\":1566:1607  Book(_title, _author, true, _pricePerDay) */\n      dup2\n      mstore\n      0x20\n      add\n        /* \"Library.sol\":1579:1586  _author */\n      dup4\n        /* \"Library.sol\":1566:1607  Book(_title, _author, true, _pricePerDay) */\n      dup2\n      mstore\n      0x20\n      add\n        /* \"Library.sol\":1588:1592  true */\n      0x01\n        /* \"Library.sol\":1566:1607  Book(_title, _author, true, _pricePerDay) */\n      iszero\n      iszero\n      dup2\n      mstore\n      0x20\n      add\n        /* \"Library.sol\":1594:1606  _pricePerDay */\n      dup3\n        /* \"Library.sol\":1566:1607  Book(_title, _author, true, _pricePerDay) */\n      dup2\n      mstore\n      pop\n        /* \"Library.sol\":1547:1552  books */\n      0x01\n        /* \"Library.sol\":1547:1563  books[bookCount] */\n      0x00\n        /* \"Library.sol\":1553:1562  bookCount */\n      sload(0x03)\n        /* \"Library.sol\":1547:1563  books[bookCount] */\n      dup2\n      mstore\n      0x20\n      add\n      swap1\n      dup2\n      mstore\n      0x20\n      add\n      0x00\n      keccak256\n        /* \"Library.sol\":1547:1607  books[bookCount] = Book(_title, _author, true, _pricePerDay) */\n      0x00\n      dup3\n      add\n      mload\n      dup2\n      0x00\n      add\n      swap1\n      dup2\n      tag_48\n      swap2\n      swap1\n      tag_49\n      jump\t// in\n    tag_48:\n      pop\n      0x20\n      dup3\n      add\n      mload\n      dup2\n      0x01\n      add\n      swap1\n      dup2\n      tag_50\n      swap2\n      swap1\n      tag_49\n      jump\t// in\n    tag_50:\n      pop\n      0x40\n      dup3\n      add\n      mload\n      dup2\n      0x02\n      add\n      exp(0x0100, 0x00)\n      dup2\n      sload\n      dup2\n      0xff\n      mul\n      not\n      and\n      swap1\n      dup4\n      iszero\n      iszero\n      mul\n      or\n      swap1\n      sstore\n      pop\n      0x60\n      dup3\n      add\n      mload\n      dup2\n      0x03\n      add\n      sstore\n      swap1\n      pop\n      pop\n        /* \"Library.sol\":1642:1651  bookCount */\n      sload(0x03)\n        /* \"Library.sol\":1618:1631  bookIdByTitle */\n      0x02\n        /* \"Library.sol\":1632:1638  _title */\n      dup5\n        /* \"Library.sol\":1618:1639  bookIdByTitle[_title] */\n      mload(0x40)\n      tag_51\n      swap2\n      swap1\n      tag_52\n      jump\t// in\n    tag_51:\n      swap1\n      dup2\n      mstore\n      0x20\n      add\n      mload(0x40)\n      dup1\n      swap2\n      sub\n      swap1\n      keccak256\n        /* \"Library.sol\":1618:1651  bookIdByTitle[_title] = bookCount */\n      dup2\n      swap1\n      sstore\n      pop\n        /* \"Library.sol\":1677:1686  bookCount */\n      sload(0x03)\n        /* \"Library.sol\":1667:1718  BookAdded(bookCount, _title, _author, _pricePerDay) */\n      0xf0fcaad7067cab5360bc9a949ef7219d84c55a5c85fc70b87feb39e9c6538def\n        /* \"Library.sol\":1688:1694  _title */\n      dup5\n        /* \"Library.sol\":1696:1703  _author */\n      dup5\n        /* \"Library.sol\":1705:1717  _pricePerDay */\n      dup5\n        /* \"Library.sol\":1667:1718  BookAdded(bookCount, _title, _author, _pricePerDay) */\n      mload(0x40)\n      tag_53\n      swap4\n      swap3\n      swap2\n      swap1\n      tag_54\n      jump\t// in\n    tag_53:\n      mload(0x40)\n      dup1\n      swap2\n      sub\n      swap1\n      log2\n        /* \"Library.sol\":1413:1726  function addBook(string memory _title, string memory _author, uint256 _pricePerDay) public onlyOwner {... */\n      pop\n      pop\n      pop\n      jump\t// out\n        /* \"Library.sol\":415:452  mapping(uint256 => Book) public books */\n    tag_18:\n      mstore(0x20, 0x01)\n      dup1\n      0x00\n      mstore\n      keccak256(0x00, 0x40)\n      0x00\n      swap2\n      pop\n      swap1\n      pop\n      dup1\n      0x00\n      add\n      dup1\n      sload\n      tag_55\n      swap1\n      tag_56\n      jump\t// in\n    tag_55:\n      dup1\n      0x1f\n      add\n      0x20\n      dup1\n      swap2\n      div\n      mul\n      0x20\n      add\n      mload(0x40)\n      swap1\n      dup2\n      add\n      0x40\n      mstore\n      dup1\n      swap3\n      swap2\n      swap1\n      dup2\n      dup2\n      mstore\n      0x20\n      add\n      dup3\n      dup1\n      sload\n      tag_57\n      swap1\n      tag_56\n      jump\t// in\n    tag_57:\n      dup1\n      iszero\n      tag_58\n      jumpi\n      dup1\n      0x1f\n      lt\n      tag_59\n      jumpi\n      0x0100\n      dup1\n      dup4\n      sload\n      div\n      mul\n      dup4\n      mstore\n      swap2\n      0x20\n      add\n      swap2\n      jump(tag_58)\n    tag_59:\n      dup3\n      add\n      swap2\n      swap1\n      0x00\n      mstore\n      keccak256(0x00, 0x20)\n      swap1\n    tag_60:\n      dup2\n      sload\n      dup2\n      mstore\n      swap1\n      0x01\n      add\n      swap1\n      0x20\n      add\n      dup1\n      dup4\n      gt\n      tag_60\n      jumpi\n      dup3\n      swap1\n      sub\n      0x1f\n      and\n      dup3\n      add\n      swap2\n    tag_58:\n      pop\n      pop\n      pop\n      pop\n      pop\n      swap1\n      dup1\n      0x01\n      add\n      dup1\n      sload\n      tag_61\n      swap1\n      tag_56\n      jump\t// in\n    tag_61:\n      dup1\n      0x1f\n      add\n      0x20\n      dup1\n      swap2\n      div\n      mul\n      0x20\n      add\n      mload(0x40)\n      swap1\n      dup2\n      add\n      0x40\n      mstore\n      dup1\n      swap3\n      swap2\n      swap1\n      dup2\n      dup2\n      mstore\n      0x20\n      add\n      dup3\n      dup1\n      sload\n      tag_62\n      swap1\n      tag_56\n      jump\t// in\n    tag_62:\n      dup1\n      iszero\n      tag_63\n      jumpi\n      dup1\n      0x1f\n      lt\n      tag_64\n      jumpi\n      0x0100\n      dup1\n      dup4\n      sload\n      div\n      mul\n      dup4\n      mstore\n      swap2\n      0x20\n      add\n      swap2\n      jump(tag_63)\n    tag_64:\n      dup3\n      add\n      swap2\n      swap1\n      0x00\n      mstore\n      keccak256(0x00, 0x20)\n      swap1\n    tag_65:\n      dup2\n      sload\n      dup2\n      mstore\n      swap1\n      0x01\n      add\n      swap1\n      0x20\n      add\n      dup1\n      dup4\n      gt\n      tag_65\n      jumpi\n      dup3\n      swap1\n      sub\n      0x1f\n      and\n      dup3\n      add\n      swap2\n    tag_63:\n      pop\n      pop\n      pop\n      pop\n      pop\n      swap1\n      dup1\n      0x02\n      add\n      0x00\n      swap1\n      sload\n      swap1\n      0x0100\n      exp\n      swap1\n      div\n      0xff\n      and\n      swap1\n      dup1\n      0x03\n      add\n      sload\n      swap1\n      pop\n      dup5\n      jump\t// out\n        /* \"Library.sol\":2055:2359  function borrowBook(uint256 _bookId) public {... */\n    tag_23:\n        /* \"Library.sol\":2129:2138  bookCount */\n      sload(0x03)\n        /* \"Library.sol\":2118:2125  _bookId */\n      dup2\n        /* \"Library.sol\":2118:2138  _bookId <= bookCount */\n      gt\n      iszero\n        /* \"Library.sol\":2118:2153  _bookId <= bookCount && _bookId > 0 */\n      dup1\n      iszero\n      tag_67\n      jumpi\n      pop\n        /* \"Library.sol\":2152:2153  0 */\n      0x00\n        /* \"Library.sol\":2142:2149  _bookId */\n      dup2\n        /* \"Library.sol\":2142:2153  _bookId > 0 */\n      gt\n        /* \"Library.sol\":2118:2153  _bookId <= bookCount && _bookId > 0 */\n    tag_67:\n        /* \"Library.sol\":2110:2178  require(_bookId <= bookCount && _bookId > 0, \"ID de livre invalide\") */\n      tag_68\n      jumpi\n      mload(0x40)\n      0x08c379a000000000000000000000000000000000000000000000000000000000\n      dup2\n      mstore\n      0x04\n      add\n      tag_69\n      swap1\n      tag_70\n      jump\t// in\n    tag_69:\n      mload(0x40)\n      dup1\n      swap2\n      sub\n      swap1\n      revert\n    tag_68:\n        /* \"Library.sol\":2197:2202  books */\n      0x01\n        /* \"Library.sol\":2197:2211  books[_bookId] */\n      0x00\n        /* \"Library.sol\":2203:2210  _bookId */\n      dup3\n        /* \"Library.sol\":2197:2211  books[_bookId] */\n      dup2\n      mstore\n      0x20\n      add\n      swap1\n      dup2\n      mstore\n      0x20\n      add\n      0x00\n      keccak256\n        /* \"Library.sol\":2197:2223  books[_bookId].isAvailable */\n      0x02\n      add\n      0x00\n      swap1\n      sload\n      swap1\n      0x0100\n      exp\n      swap1\n      div\n      0xff\n      and\n        /* \"Library.sol\":2189:2257  require(books[_bookId].isAvailable, \"Le livre n'est pas disponible\") */\n      tag_71\n      jumpi\n      mload(0x40)\n      0x08c379a000000000000000000000000000000000000000000000000000000000\n      dup2\n      mstore\n      0x04\n      add\n      tag_72\n      swap1\n      tag_73\n      jump\t// in\n    tag_72:\n      mload(0x40)\n      dup1\n      swap2\n      sub\n      swap1\n      revert\n    tag_71:\n        /* \"Library.sol\":2297:2302  false */\n      0x00\n        /* \"Library.sol\":2268:2273  books */\n      0x01\n        /* \"Library.sol\":2268:2282  books[_bookId] */\n      0x00\n        /* \"Library.sol\":2274:2281  _bookId */\n      dup4\n        /* \"Library.sol\":2268:2282  books[_bookId] */\n      dup2\n      mstore\n      0x20\n      add\n      swap1\n      dup2\n      mstore\n      0x20\n      add\n      0x00\n      keccak256\n        /* \"Library.sol\":2268:2294  books[_bookId].isAvailable */\n      0x02\n      add\n      0x00\n        /* \"Library.sol\":2268:2302  books[_bookId].isAvailable = false */\n      0x0100\n      exp\n      dup2\n      sload\n      dup2\n      0xff\n      mul\n      not\n      and\n      swap1\n      dup4\n      iszero\n      iszero\n      mul\n      or\n      swap1\n      sstore\n      pop\n        /* \"Library.sol\":2331:2338  _bookId */\n      dup1\n        /* \"Library.sol\":2318:2351  BookBorrowed(_bookId, msg.sender) */\n      0x7534124779d4d1eaf9cabba5f94b2b281856aba81c295cde4c9e69483b04b8cc\n        /* \"Library.sol\":2340:2350  msg.sender */\n      caller\n        /* \"Library.sol\":2318:2351  BookBorrowed(_bookId, msg.sender) */\n      mload(0x40)\n      tag_74\n      swap2\n      swap1\n      tag_32\n      jump\t// in\n    tag_74:\n      mload(0x40)\n      dup1\n      swap2\n      sub\n      swap1\n      log2\n        /* \"Library.sol\":2055:2359  function borrowBook(uint256 _bookId) public {... */\n      pop\n      jump\t// out\n        /* \"Library.sol\":1804:2006  function getPricePerDay(uint256 _bookId) public view returns (uint256) {... */\n    tag_26:\n        /* \"Library.sol\":1866:1873  uint256 */\n      0x00\n        /* \"Library.sol\":1905:1914  bookCount */\n      sload(0x03)\n        /* \"Library.sol\":1894:1901  _bookId */\n      dup3\n        /* \"Library.sol\":1894:1914  _bookId <= bookCount */\n      gt\n      iszero\n        /* \"Library.sol\":1894:1929  _bookId <= bookCount && _bookId > 0 */\n      dup1\n      iszero\n      tag_76\n      jumpi\n      pop\n        /* \"Library.sol\":1928:1929  0 */\n      0x00\n        /* \"Library.sol\":1918:1925  _bookId */\n      dup3\n        /* \"Library.sol\":1918:1929  _bookId > 0 */\n      gt\n        /* \"Library.sol\":1894:1929  _bookId <= bookCount && _bookId > 0 */\n    tag_76:\n        /* \"Library.sol\":1886:1954  require(_bookId <= bookCount && _bookId > 0, \"ID de livre invalide\") */\n      tag_77\n      jumpi\n      mload(0x40)\n      0x08c379a000000000000000000000000000000000000000000000000000000000\n      dup2\n      mstore\n      0x04\n      add\n      tag_78\n      swap1\n      tag_70\n      jump\t// in\n    tag_78:\n      mload(0x40)\n      dup1\n      swap2\n      sub\n      swap1\n      revert\n    tag_77:\n        /* \"Library.sol\":1972:1977  books */\n      0x01\n        /* \"Library.sol\":1972:1986  books[_bookId] */\n      0x00\n        /* \"Library.sol\":1978:1985  _bookId */\n      dup4\n        /* \"Library.sol\":1972:1986  books[_bookId] */\n      dup2\n      mstore\n      0x20\n      add\n      swap1\n      dup2\n      mstore\n      0x20\n      add\n      0x00\n      keccak256\n        /* \"Library.sol\":1972:1998  books[_bookId].pricePerDay */\n      0x03\n      add\n      sload\n        /* \"Library.sol\":1965:1998  return books[_bookId].pricePerDay */\n      swap1\n      pop\n        /* \"Library.sol\":1804:2006  function getPricePerDay(uint256 _bookId) public view returns (uint256) {... */\n      swap2\n      swap1\n      pop\n      jump\t// out\n        /* \"Library.sol\":84:104  address public owner */\n    tag_30:\n      0x00\n      dup1\n      sload\n      swap1\n      0x0100\n      exp\n      swap1\n      div\n      0xffffffffffffffffffffffffffffffffffffffff\n      and\n      dup2\n      jump\t// out\n        /* \"Library.sol\":612:636  uint256 public bookCount */\n    tag_34:\n      sload(0x03)\n      dup2\n      jump\t// out\n        /* \"Library.sol\":521:568  mapping(string => uint256) public bookIdByTitle */\n    tag_39:\n      0x02\n      dup2\n      dup1\n      mload\n      0x20\n      dup2\n      add\n      dup3\n      add\n      dup1\n      mload\n      dup5\n      dup3\n      mstore\n      0x20\n      dup4\n      add\n      0x20\n      dup6\n      add\n      keccak256\n      dup2\n      dup4\n      mstore\n      dup1\n      swap6\n      pop\n      pop\n      pop\n      pop\n      pop\n      pop\n      0x00\n      swap2\n      pop\n      swap1\n      pop\n      sload\n      dup2\n      jump\t// out\n        /* \"#utility.yul\":7:82   */\n    tag_79:\n        /* \"#utility.yul\":40:46   */\n      0x00\n        /* \"#utility.yul\":73:75   */\n      0x40\n        /* \"#utility.yul\":67:76   */\n      mload\n        /* \"#utility.yul\":57:76   */\n      swap1\n      pop\n        /* \"#utility.yul\":7:82   */\n      swap1\n      jump\t// out\n        /* \"#utility.yul\":88:205   */\n    tag_80:\n        /* \"#utility.yul\":197:198   */\n      0x00\n        /* \"#utility.yul\":194:195   */\n      dup1\n        /* \"#utility.yul\":187:199   */\n      revert\n        /* \"#utility.yul\":211:328   */\n    tag_81:\n        /* \"#utility.yul\":320:321   */\n      0x00\n        /* \"#utility.yul\":317:318   */\n      dup1\n        /* \"#utility.yul\":310:322   */\n      revert\n        /* \"#utility.yul\":334:451   */\n    tag_82:\n        /* \"#utility.yul\":443:444   */\n      0x00\n        /* \"#utility.yul\":440:441   */\n      dup1\n        /* \"#utility.yul\":433:445   */\n      revert\n        /* \"#utility.yul\":457:574   */\n    tag_83:\n        /* \"#utility.yul\":566:567   */\n      0x00\n        /* \"#utility.yul\":563:564   */\n      dup1\n        /* \"#utility.yul\":556:568   */\n      revert\n        /* \"#utility.yul\":580:682   */\n    tag_84:\n        /* \"#utility.yul\":621:627   */\n      0x00\n        /* \"#utility.yul\":672:674   */\n      0x1f\n        /* \"#utility.yul\":668:675   */\n      not\n        /* \"#utility.yul\":663:665   */\n      0x1f\n        /* \"#utility.yul\":656:661   */\n      dup4\n        /* \"#utility.yul\":652:666   */\n      add\n        /* \"#utility.yul\":648:676   */\n      and\n        /* \"#utility.yul\":638:676   */\n      swap1\n      pop\n        /* \"#utility.yul\":580:682   */\n      swap2\n      swap1\n      pop\n      jump\t// out\n        /* \"#utility.yul\":688:868   */\n    tag_85:\n        /* \"#utility.yul\":736:813   */\n      0x4e487b7100000000000000000000000000000000000000000000000000000000\n        /* \"#utility.yul\":733:734   */\n      0x00\n        /* \"#utility.yul\":726:814   */\n      mstore\n        /* \"#utility.yul\":833:837   */\n      0x41\n        /* \"#utility.yul\":830:831   */\n      0x04\n        /* \"#utility.yul\":823:838   */\n      mstore\n        /* \"#utility.yul\":857:861   */\n      0x24\n        /* \"#utility.yul\":854:855   */\n      0x00\n        /* \"#utility.yul\":847:862   */\n      revert\n        /* \"#utility.yul\":874:1155   */\n    tag_86:\n        /* \"#utility.yul\":957:984   */\n      tag_139\n        /* \"#utility.yul\":979:983   */\n      dup3\n        /* \"#utility.yul\":957:984   */\n      tag_84\n      jump\t// in\n    tag_139:\n        /* \"#utility.yul\":949:955   */\n      dup2\n        /* \"#utility.yul\":945:985   */\n      add\n        /* \"#utility.yul\":1087:1093   */\n      dup2\n        /* \"#utility.yul\":1075:1085   */\n      dup2\n        /* \"#utility.yul\":1072:1094   */\n      lt\n        /* \"#utility.yul\":1051:1069   */\n      0xffffffffffffffff\n        /* \"#utility.yul\":1039:1049   */\n      dup3\n        /* \"#utility.yul\":1036:1070   */\n      gt\n        /* \"#utility.yul\":1033:1095   */\n      or\n        /* \"#utility.yul\":1030:1118   */\n      iszero\n      tag_140\n      jumpi\n        /* \"#utility.yul\":1098:1116   */\n      tag_141\n      tag_85\n      jump\t// in\n    tag_141:\n        /* \"#utility.yul\":1030:1118   */\n    tag_140:\n        /* \"#utility.yul\":1138:1148   */\n      dup1\n        /* \"#utility.yul\":1134:1136   */\n      0x40\n        /* \"#utility.yul\":1127:1149   */\n      mstore\n        /* \"#utility.yul\":917:1155   */\n      pop\n        /* \"#utility.yul\":874:1155   */\n      pop\n      pop\n      jump\t// out\n        /* \"#utility.yul\":1161:1290   */\n    tag_87:\n        /* \"#utility.yul\":1195:1201   */\n      0x00\n        /* \"#utility.yul\":1222:1242   */\n      tag_143\n      tag_79\n      jump\t// in\n    tag_143:\n        /* \"#utility.yul\":1212:1242   */\n      swap1\n      pop\n        /* \"#utility.yul\":1251:1284   */\n      tag_144\n        /* \"#utility.yul\":1279:1283   */\n      dup3\n        /* \"#utility.yul\":1271:1277   */\n      dup3\n        /* \"#utility.yul\":1251:1284   */\n      tag_86\n      jump\t// in\n    tag_144:\n        /* \"#utility.yul\":1161:1290   */\n      swap2\n      swap1\n      pop\n      jump\t// out\n        /* \"#utility.yul\":1296:1604   */\n    tag_88:\n        /* \"#utility.yul\":1358:1362   */\n      0x00\n        /* \"#utility.yul\":1448:1466   */\n      0xffffffffffffffff\n        /* \"#utility.yul\":1440:1446   */\n      dup3\n        /* \"#utility.yul\":1437:1467   */\n      gt\n        /* \"#utility.yul\":1434:1490   */\n      iszero\n      tag_146\n      jumpi\n        /* \"#utility.yul\":1470:1488   */\n      tag_147\n      tag_85\n      jump\t// in\n    tag_147:\n        /* \"#utility.yul\":1434:1490   */\n    tag_146:\n        /* \"#utility.yul\":1508:1537   */\n      tag_148\n        /* \"#utility.yul\":1530:1536   */\n      dup3\n        /* \"#utility.yul\":1508:1537   */\n      tag_84\n      jump\t// in\n    tag_148:\n        /* \"#utility.yul\":1500:1537   */\n      swap1\n      pop\n        /* \"#utility.yul\":1592:1596   */\n      0x20\n        /* \"#utility.yul\":1586:1590   */\n      dup2\n        /* \"#utility.yul\":1582:1597   */\n      add\n        /* \"#utility.yul\":1574:1597   */\n      swap1\n      pop\n        /* \"#utility.yul\":1296:1604   */\n      swap2\n      swap1\n      pop\n      jump\t// out\n        /* \"#utility.yul\":1610:1756   */\n    tag_89:\n        /* \"#utility.yul\":1707:1713   */\n      dup3\n        /* \"#utility.yul\":1702:1705   */\n      dup2\n        /* \"#utility.yul\":1697:1700   */\n      dup4\n        /* \"#utility.yul\":1684:1714   */\n      calldatacopy\n        /* \"#utility.yul\":1748:1749   */\n      0x00\n        /* \"#utility.yul\":1739:1745   */\n      dup4\n        /* \"#utility.yul\":1734:1737   */\n      dup4\n        /* \"#utility.yul\":1730:1746   */\n      add\n        /* \"#utility.yul\":1723:1750   */\n      mstore\n        /* \"#utility.yul\":1610:1756   */\n      pop\n      pop\n      pop\n      jump\t// out\n        /* \"#utility.yul\":1762:2187   */\n    tag_90:\n        /* \"#utility.yul\":1840:1845   */\n      0x00\n        /* \"#utility.yul\":1865:1931   */\n      tag_151\n        /* \"#utility.yul\":1881:1930   */\n      tag_152\n        /* \"#utility.yul\":1923:1929   */\n      dup5\n        /* \"#utility.yul\":1881:1930   */\n      tag_88\n      jump\t// in\n    tag_152:\n        /* \"#utility.yul\":1865:1931   */\n      tag_87\n      jump\t// in\n    tag_151:\n        /* \"#utility.yul\":1856:1931   */\n      swap1\n      pop\n        /* \"#utility.yul\":1954:1960   */\n      dup3\n        /* \"#utility.yul\":1947:1952   */\n      dup2\n        /* \"#utility.yul\":1940:1961   */\n      mstore\n        /* \"#utility.yul\":1992:1996   */\n      0x20\n        /* \"#utility.yul\":1985:1990   */\n      dup2\n        /* \"#utility.yul\":1981:1997   */\n      add\n        /* \"#utility.yul\":2030:2033   */\n      dup5\n        /* \"#utility.yul\":2021:2027   */\n      dup5\n        /* \"#utility.yul\":2016:2019   */\n      dup5\n        /* \"#utility.yul\":2012:2028   */\n      add\n        /* \"#utility.yul\":2009:2034   */\n      gt\n        /* \"#utility.yul\":2006:2118   */\n      iszero\n      tag_153\n      jumpi\n        /* \"#utility.yul\":2037:2116   */\n      tag_154\n      tag_83\n      jump\t// in\n    tag_154:\n        /* \"#utility.yul\":2006:2118   */\n    tag_153:\n        /* \"#utility.yul\":2127:2181   */\n      tag_155\n        /* \"#utility.yul\":2174:2180   */\n      dup5\n        /* \"#utility.yul\":2169:2172   */\n      dup3\n        /* \"#utility.yul\":2164:2167   */\n      dup6\n        /* \"#utility.yul\":2127:2181   */\n      tag_89\n      jump\t// in\n    tag_155:\n        /* \"#utility.yul\":1846:2187   */\n      pop\n        /* \"#utility.yul\":1762:2187   */\n      swap4\n      swap3\n      pop\n      pop\n      pop\n      jump\t// out\n        /* \"#utility.yul\":2207:2547   */\n    tag_91:\n        /* \"#utility.yul\":2263:2268   */\n      0x00\n        /* \"#utility.yul\":2312:2315   */\n      dup3\n        /* \"#utility.yul\":2305:2309   */\n      0x1f\n        /* \"#utility.yul\":2297:2303   */\n      dup4\n        /* \"#utility.yul\":2293:2310   */\n      add\n        /* \"#utility.yul\":2289:2316   */\n      slt\n        /* \"#utility.yul\":2279:2401   */\n      tag_157\n      jumpi\n        /* \"#utility.yul\":2320:2399   */\n      tag_158\n      tag_82\n      jump\t// in\n    tag_158:\n        /* \"#utility.yul\":2279:2401   */\n    tag_157:\n        /* \"#utility.yul\":2437:2443   */\n      dup2\n        /* \"#utility.yul\":2424:2444   */\n      calldataload\n        /* \"#utility.yul\":2462:2541   */\n      tag_159\n        /* \"#utility.yul\":2537:2540   */\n      dup5\n        /* \"#utility.yul\":2529:2535   */\n      dup3\n        /* \"#utility.yul\":2522:2526   */\n      0x20\n        /* \"#utility.yul\":2514:2520   */\n      dup7\n        /* \"#utility.yul\":2510:2527   */\n      add\n        /* \"#utility.yul\":2462:2541   */\n      tag_90\n      jump\t// in\n    tag_159:\n        /* \"#utility.yul\":2453:2541   */\n      swap2\n      pop\n        /* \"#utility.yul\":2269:2547   */\n      pop\n        /* \"#utility.yul\":2207:2547   */\n      swap3\n      swap2\n      pop\n      pop\n      jump\t// out\n        /* \"#utility.yul\":2553:2630   */\n    tag_92:\n        /* \"#utility.yul\":2590:2597   */\n      0x00\n        /* \"#utility.yul\":2619:2624   */\n      dup2\n        /* \"#utility.yul\":2608:2624   */\n      swap1\n      pop\n        /* \"#utility.yul\":2553:2630   */\n      swap2\n      swap1\n      pop\n      jump\t// out\n        /* \"#utility.yul\":2636:2758   */\n    tag_93:\n        /* \"#utility.yul\":2709:2733   */\n      tag_162\n        /* \"#utility.yul\":2727:2732   */\n      dup2\n        /* \"#utility.yul\":2709:2733   */\n      tag_92\n      jump\t// in\n    tag_162:\n        /* \"#utility.yul\":2702:2707   */\n      dup2\n        /* \"#utility.yul\":2699:2734   */\n      eq\n        /* \"#utility.yul\":2689:2752   */\n      tag_163\n      jumpi\n        /* \"#utility.yul\":2748:2749   */\n      0x00\n        /* \"#utility.yul\":2745:2746   */\n      dup1\n        /* \"#utility.yul\":2738:2750   */\n      revert\n        /* \"#utility.yul\":2689:2752   */\n    tag_163:\n        /* \"#utility.yul\":2636:2758   */\n      pop\n      jump\t// out\n        /* \"#utility.yul\":2764:2903   */\n    tag_94:\n        /* \"#utility.yul\":2810:2815   */\n      0x00\n        /* \"#utility.yul\":2848:2854   */\n      dup2\n        /* \"#utility.yul\":2835:2855   */\n      calldataload\n        /* \"#utility.yul\":2826:2855   */\n      swap1\n      pop\n        /* \"#utility.yul\":2864:2897   */\n      tag_165\n        /* \"#utility.yul\":2891:2896   */\n      dup2\n        /* \"#utility.yul\":2864:2897   */\n      tag_93\n      jump\t// in\n    tag_165:\n        /* \"#utility.yul\":2764:2903   */\n      swap3\n      swap2\n      pop\n      pop\n      jump\t// out\n        /* \"#utility.yul\":2909:3888   */\n    tag_13:\n        /* \"#utility.yul\":3006:3012   */\n      0x00\n        /* \"#utility.yul\":3014:3020   */\n      dup1\n        /* \"#utility.yul\":3022:3028   */\n      0x00\n        /* \"#utility.yul\":3071:3073   */\n      0x60\n        /* \"#utility.yul\":3059:3068   */\n      dup5\n        /* \"#utility.yul\":3050:3057   */\n      dup7\n        /* \"#utility.yul\":3046:3069   */\n      sub\n        /* \"#utility.yul\":3042:3074   */\n      slt\n        /* \"#utility.yul\":3039:3158   */\n      iszero\n      tag_167\n      jumpi\n        /* \"#utility.yul\":3077:3156   */\n      tag_168\n      tag_80\n      jump\t// in\n    tag_168:\n        /* \"#utility.yul\":3039:3158   */\n    tag_167:\n        /* \"#utility.yul\":3225:3226   */\n      0x00\n        /* \"#utility.yul\":3214:3223   */\n      dup5\n        /* \"#utility.yul\":3210:3227   */\n      add\n        /* \"#utility.yul\":3197:3228   */\n      calldataload\n        /* \"#utility.yul\":3255:3273   */\n      0xffffffffffffffff\n        /* \"#utility.yul\":3247:3253   */\n      dup2\n        /* \"#utility.yul\":3244:3274   */\n      gt\n        /* \"#utility.yul\":3241:3358   */\n      iszero\n      tag_169\n      jumpi\n        /* \"#utility.yul\":3277:3356   */\n      tag_170\n      tag_81\n      jump\t// in\n    tag_170:\n        /* \"#utility.yul\":3241:3358   */\n    tag_169:\n        /* \"#utility.yul\":3382:3445   */\n      tag_171\n        /* \"#utility.yul\":3437:3444   */\n      dup7\n        /* \"#utility.yul\":3428:3434   */\n      dup3\n        /* \"#utility.yul\":3417:3426   */\n      dup8\n        /* \"#utility.yul\":3413:3435   */\n      add\n        /* \"#utility.yul\":3382:3445   */\n      tag_91\n      jump\t// in\n    tag_171:\n        /* \"#utility.yul\":3372:3445   */\n      swap4\n      pop\n        /* \"#utility.yul\":3168:3455   */\n      pop\n        /* \"#utility.yul\":3522:3524   */\n      0x20\n        /* \"#utility.yul\":3511:3520   */\n      dup5\n        /* \"#utility.yul\":3507:3525   */\n      add\n        /* \"#utility.yul\":3494:3526   */\n      calldataload\n        /* \"#utility.yul\":3553:3571   */\n      0xffffffffffffffff\n        /* \"#utility.yul\":3545:3551   */\n      dup2\n        /* \"#utility.yul\":3542:3572   */\n      gt\n        /* \"#utility.yul\":3539:3656   */\n      iszero\n      tag_172\n      jumpi\n        /* \"#utility.yul\":3575:3654   */\n      tag_173\n      tag_81\n      jump\t// in\n    tag_173:\n        /* \"#utility.yul\":3539:3656   */\n    tag_172:\n        /* \"#utility.yul\":3680:3743   */\n      tag_174\n        /* \"#utility.yul\":3735:3742   */\n      dup7\n        /* \"#utility.yul\":3726:3732   */\n      dup3\n        /* \"#utility.yul\":3715:3724   */\n      dup8\n        /* \"#utility.yul\":3711:3733   */\n      add\n        /* \"#utility.yul\":3680:3743   */\n      tag_91\n      jump\t// in\n    tag_174:\n        /* \"#utility.yul\":3670:3743   */\n      swap3\n      pop\n        /* \"#utility.yul\":3465:3753   */\n      pop\n        /* \"#utility.yul\":3792:3794   */\n      0x40\n        /* \"#utility.yul\":3818:3871   */\n      tag_175\n        /* \"#utility.yul\":3863:3870   */\n      dup7\n        /* \"#utility.yul\":3854:3860   */\n      dup3\n        /* \"#utility.yul\":3843:3852   */\n      dup8\n        /* \"#utility.yul\":3839:3861   */\n      add\n        /* \"#utility.yul\":3818:3871   */\n      tag_94\n      jump\t// in\n    tag_175:\n        /* \"#utility.yul\":3808:3871   */\n      swap2\n      pop\n        /* \"#utility.yul\":3763:3881   */\n      pop\n        /* \"#utility.yul\":2909:3888   */\n      swap3\n      pop\n      swap3\n      pop\n      swap3\n      jump\t// out\n        /* \"#utility.yul\":3894:4223   */\n    tag_17:\n        /* \"#utility.yul\":3953:3959   */\n      0x00\n        /* \"#utility.yul\":4002:4004   */\n      0x20\n        /* \"#utility.yul\":3990:3999   */\n      dup3\n        /* \"#utility.yul\":3981:3988   */\n      dup5\n        /* \"#utility.yul\":3977:4000   */\n      sub\n        /* \"#utility.yul\":3973:4005   */\n      slt\n        /* \"#utility.yul\":3970:4089   */\n      iszero\n      tag_177\n      jumpi\n        /* \"#utility.yul\":4008:4087   */\n      tag_178\n      tag_80\n      jump\t// in\n    tag_178:\n        /* \"#utility.yul\":3970:4089   */\n    tag_177:\n        /* \"#utility.yul\":4128:4129   */\n      0x00\n        /* \"#utility.yul\":4153:4206   */\n      tag_179\n        /* \"#utility.yul\":4198:4205   */\n      dup5\n        /* \"#utility.yul\":4189:4195   */\n      dup3\n        /* \"#utility.yul\":4178:4187   */\n      dup6\n        /* \"#utility.yul\":4174:4196   */\n      add\n        /* \"#utility.yul\":4153:4206   */\n      tag_94\n      jump\t// in\n    tag_179:\n        /* \"#utility.yul\":4143:4206   */\n      swap2\n      pop\n        /* \"#utility.yul\":4099:4216   */\n      pop\n        /* \"#utility.yul\":3894:4223   */\n      swap3\n      swap2\n      pop\n      pop\n      jump\t// out\n        /* \"#utility.yul\":4229:4328   */\n    tag_95:\n        /* \"#utility.yul\":4281:4287   */\n      0x00\n        /* \"#utility.yul\":4315:4320   */\n      dup2\n        /* \"#utility.yul\":4309:4321   */\n      mload\n        /* \"#utility.yul\":4299:4321   */\n      swap1\n      pop\n        /* \"#utility.yul\":4229:4328   */\n      swap2\n      swap1\n      pop\n      jump\t// out\n        /* \"#utility.yul\":4334:4503   */\n    tag_96:\n        /* \"#utility.yul\":4418:4429   */\n      0x00\n        /* \"#utility.yul\":4452:4458   */\n      dup3\n        /* \"#utility.yul\":4447:4450   */\n      dup3\n        /* \"#utility.yul\":4440:4459   */\n      mstore\n        /* \"#utility.yul\":4492:4496   */\n      0x20\n        /* \"#utility.yul\":4487:4490   */\n      dup3\n        /* \"#utility.yul\":4483:4497   */\n      add\n        /* \"#utility.yul\":4468:4497   */\n      swap1\n      pop\n        /* \"#utility.yul\":4334:4503   */\n      swap3\n      swap2\n      pop\n      pop\n      jump\t// out\n        /* \"#utility.yul\":4509:4755   */\n    tag_97:\n        /* \"#utility.yul\":4590:4591   */\n      0x00\n        /* \"#utility.yul\":4600:4713   */\n    tag_183:\n        /* \"#utility.yul\":4614:4620   */\n      dup4\n        /* \"#utility.yul\":4611:4612   */\n      dup2\n        /* \"#utility.yul\":4608:4621   */\n      lt\n        /* \"#utility.yul\":4600:4713   */\n      iszero\n      tag_185\n      jumpi\n        /* \"#utility.yul\":4699:4700   */\n      dup1\n        /* \"#utility.yul\":4694:4697   */\n      dup3\n        /* \"#utility.yul\":4690:4701   */\n      add\n        /* \"#utility.yul\":4684:4702   */\n      mload\n        /* \"#utility.yul\":4680:4681   */\n      dup2\n        /* \"#utility.yul\":4675:4678   */\n      dup5\n        /* \"#utility.yul\":4671:4682   */\n      add\n        /* \"#utility.yul\":4664:4703   */\n      mstore\n        /* \"#utility.yul\":4636:4638   */\n      0x20\n        /* \"#utility.yul\":4633:4634   */\n      dup2\n        /* \"#utility.yul\":4629:4639   */\n      add\n        /* \"#utility.yul\":4624:4639   */\n      swap1\n      pop\n        /* \"#utility.yul\":4600:4713   */\n      jump(tag_183)\n    tag_185:\n        /* \"#utility.yul\":4747:4748   */\n      0x00\n        /* \"#utility.yul\":4738:4744   */\n      dup5\n        /* \"#utility.yul\":4733:4736   */\n      dup5\n        /* \"#utility.yul\":4729:4745   */\n      add\n        /* \"#utility.yul\":4722:4749   */\n      mstore\n        /* \"#utility.yul\":4571:4755   */\n      pop\n        /* \"#utility.yul\":4509:4755   */\n      pop\n      pop\n      pop\n      jump\t// out\n        /* \"#utility.yul\":4761:5138   */\n    tag_98:\n        /* \"#utility.yul\":4849:4852   */\n      0x00\n        /* \"#utility.yul\":4877:4916   */\n      tag_187\n        /* \"#utility.yul\":4910:4915   */\n      dup3\n        /* \"#utility.yul\":4877:4916   */\n      tag_95\n      jump\t// in\n    tag_187:\n        /* \"#utility.yul\":4932:5003   */\n      tag_188\n        /* \"#utility.yul\":4996:5002   */\n      dup2\n        /* \"#utility.yul\":4991:4994   */\n      dup6\n        /* \"#utility.yul\":4932:5003   */\n      tag_96\n      jump\t// in\n    tag_188:\n        /* \"#utility.yul\":4925:5003   */\n      swap4\n      pop\n        /* \"#utility.yul\":5012:5077   */\n      tag_189\n        /* \"#utility.yul\":5070:5076   */\n      dup2\n        /* \"#utility.yul\":5065:5068   */\n      dup6\n        /* \"#utility.yul\":5058:5062   */\n      0x20\n        /* \"#utility.yul\":5051:5056   */\n      dup7\n        /* \"#utility.yul\":5047:5063   */\n      add\n        /* \"#utility.yul\":5012:5077   */\n      tag_97\n      jump\t// in\n    tag_189:\n        /* \"#utility.yul\":5102:5131   */\n      tag_190\n        /* \"#utility.yul\":5124:5130   */\n      dup2\n        /* \"#utility.yul\":5102:5131   */\n      tag_84\n      jump\t// in\n    tag_190:\n        /* \"#utility.yul\":5097:5100   */\n      dup5\n        /* \"#utility.yul\":5093:5132   */\n      add\n        /* \"#utility.yul\":5086:5132   */\n      swap2\n      pop\n        /* \"#utility.yul\":4853:5138   */\n      pop\n        /* \"#utility.yul\":4761:5138   */\n      swap3\n      swap2\n      pop\n      pop\n      jump\t// out\n        /* \"#utility.yul\":5144:5234   */\n    tag_99:\n        /* \"#utility.yul\":5178:5185   */\n      0x00\n        /* \"#utility.yul\":5221:5226   */\n      dup2\n        /* \"#utility.yul\":5214:5227   */\n      iszero\n        /* \"#utility.yul\":5207:5228   */\n      iszero\n        /* \"#utility.yul\":5196:5228   */\n      swap1\n      pop\n        /* \"#utility.yul\":5144:5234   */\n      swap2\n      swap1\n      pop\n      jump\t// out\n        /* \"#utility.yul\":5240:5349   */\n    tag_100:\n        /* \"#utility.yul\":5321:5342   */\n      tag_193\n        /* \"#utility.yul\":5336:5341   */\n      dup2\n        /* \"#utility.yul\":5321:5342   */\n      tag_99\n      jump\t// in\n    tag_193:\n        /* \"#utility.yul\":5316:5319   */\n      dup3\n        /* \"#utility.yul\":5309:5343   */\n      mstore\n        /* \"#utility.yul\":5240:5349   */\n      pop\n      pop\n      jump\t// out\n        /* \"#utility.yul\":5355:5473   */\n    tag_101:\n        /* \"#utility.yul\":5442:5466   */\n      tag_195\n        /* \"#utility.yul\":5460:5465   */\n      dup2\n        /* \"#utility.yul\":5442:5466   */\n      tag_92\n      jump\t// in\n    tag_195:\n        /* \"#utility.yul\":5437:5440   */\n      dup3\n        /* \"#utility.yul\":5430:5467   */\n      mstore\n        /* \"#utility.yul\":5355:5473   */\n      pop\n      pop\n      jump\t// out\n        /* \"#utility.yul\":5479:6202   */\n    tag_20:\n        /* \"#utility.yul\":5690:5694   */\n      0x00\n        /* \"#utility.yul\":5728:5731   */\n      0x80\n        /* \"#utility.yul\":5717:5726   */\n      dup3\n        /* \"#utility.yul\":5713:5732   */\n      add\n        /* \"#utility.yul\":5705:5732   */\n      swap1\n      pop\n        /* \"#utility.yul\":5778:5787   */\n      dup2\n        /* \"#utility.yul\":5772:5776   */\n      dup2\n        /* \"#utility.yul\":5768:5788   */\n      sub\n        /* \"#utility.yul\":5764:5765   */\n      0x00\n        /* \"#utility.yul\":5753:5762   */\n      dup4\n        /* \"#utility.yul\":5749:5766   */\n      add\n        /* \"#utility.yul\":5742:5789   */\n      mstore\n        /* \"#utility.yul\":5806:5884   */\n      tag_197\n        /* \"#utility.yul\":5879:5883   */\n      dup2\n        /* \"#utility.yul\":5870:5876   */\n      dup8\n        /* \"#utility.yul\":5806:5884   */\n      tag_98\n      jump\t// in\n    tag_197:\n        /* \"#utility.yul\":5798:5884   */\n      swap1\n      pop\n        /* \"#utility.yul\":5931:5940   */\n      dup2\n        /* \"#utility.yul\":5925:5929   */\n      dup2\n        /* \"#utility.yul\":5921:5941   */\n      sub\n        /* \"#utility.yul\":5916:5918   */\n      0x20\n        /* \"#utility.yul\":5905:5914   */\n      dup4\n        /* \"#utility.yul\":5901:5919   */\n      add\n        /* \"#utility.yul\":5894:5942   */\n      mstore\n        /* \"#utility.yul\":5959:6037   */\n      tag_198\n        /* \"#utility.yul\":6032:6036   */\n      dup2\n        /* \"#utility.yul\":6023:6029   */\n      dup7\n        /* \"#utility.yul\":5959:6037   */\n      tag_98\n      jump\t// in\n    tag_198:\n        /* \"#utility.yul\":5951:6037   */\n      swap1\n      pop\n        /* \"#utility.yul\":6047:6113   */\n      tag_199\n        /* \"#utility.yul\":6109:6111   */\n      0x40\n        /* \"#utility.yul\":6098:6107   */\n      dup4\n        /* \"#utility.yul\":6094:6112   */\n      add\n        /* \"#utility.yul\":6085:6091   */\n      dup6\n        /* \"#utility.yul\":6047:6113   */\n      tag_100\n      jump\t// in\n    tag_199:\n        /* \"#utility.yul\":6123:6195   */\n      tag_200\n        /* \"#utility.yul\":6191:6193   */\n      0x60\n        /* \"#utility.yul\":6180:6189   */\n      dup4\n        /* \"#utility.yul\":6176:6194   */\n      add\n        /* \"#utility.yul\":6167:6173   */\n      dup5\n        /* \"#utility.yul\":6123:6195   */\n      tag_101\n      jump\t// in\n    tag_200:\n        /* \"#utility.yul\":5479:6202   */\n      swap6\n      swap5\n      pop\n      pop\n      pop\n      pop\n      pop\n      jump\t// out\n        /* \"#utility.yul\":6208:6430   */\n    tag_28:\n        /* \"#utility.yul\":6301:6305   */\n      0x00\n        /* \"#utility.yul\":6339:6341   */\n      0x20\n        /* \"#utility.yul\":6328:6337   */\n      dup3\n        /* \"#utility.yul\":6324:6342   */\n      add\n        /* \"#utility.yul\":6316:6342   */\n      swap1\n      pop\n        /* \"#utility.yul\":6352:6423   */\n      tag_202\n        /* \"#utility.yul\":6420:6421   */\n      0x00\n        /* \"#utility.yul\":6409:6418   */\n      dup4\n        /* \"#utility.yul\":6405:6422   */\n      add\n        /* \"#utility.yul\":6396:6402   */\n      dup5\n        /* \"#utility.yul\":6352:6423   */\n      tag_101\n      jump\t// in\n    tag_202:\n        /* \"#utility.yul\":6208:6430   */\n      swap3\n      swap2\n      pop\n      pop\n      jump\t// out\n        /* \"#utility.yul\":6436:6562   */\n    tag_102:\n        /* \"#utility.yul\":6473:6480   */\n      0x00\n        /* \"#utility.yul\":6513:6555   */\n      0xffffffffffffffffffffffffffffffffffffffff\n        /* \"#utility.yul\":6506:6511   */\n      dup3\n        /* \"#utility.yul\":6502:6556   */\n      and\n        /* \"#utility.yul\":6491:6556   */\n      swap1\n      pop\n        /* \"#utility.yul\":6436:6562   */\n      swap2\n      swap1\n      pop\n      jump\t// out\n        /* \"#utility.yul\":6568:6664   */\n    tag_103:\n        /* \"#utility.yul\":6605:6612   */\n      0x00\n        /* \"#utility.yul\":6634:6658   */\n      tag_205\n        /* \"#utility.yul\":6652:6657   */\n      dup3\n        /* \"#utility.yul\":6634:6658   */\n      tag_102\n      jump\t// in\n    tag_205:\n        /* \"#utility.yul\":6623:6658   */\n      swap1\n      pop\n        /* \"#utility.yul\":6568:6664   */\n      swap2\n      swap1\n      pop\n      jump\t// out\n        /* \"#utility.yul\":6670:6788   */\n    tag_104:\n        /* \"#utility.yul\":6757:6781   */\n      tag_207\n        /* \"#utility.yul\":6775:6780   */\n      dup2\n        /* \"#utility.yul\":6757:6781   */\n      tag_103\n      jump\t// in\n    tag_207:\n        /* \"#utility.yul\":6752:6755   */\n      dup3\n        /* \"#utility.yul\":6745:6782   */\n      mstore\n        /* \"#utility.yul\":6670:6788   */\n      pop\n      pop\n      jump\t// out\n        /* \"#utility.yul\":6794:7016   */\n    tag_32:\n        /* \"#utility.yul\":6887:6891   */\n      0x00\n        /* \"#utility.yul\":6925:6927   */\n      0x20\n        /* \"#utility.yul\":6914:6923   */\n      dup3\n        /* \"#utility.yul\":6910:6928   */\n      add\n        /* \"#utility.yul\":6902:6928   */\n      swap1\n      pop\n        /* \"#utility.yul\":6938:7009   */\n      tag_209\n        /* \"#utility.yul\":7006:7007   */\n      0x00\n        /* \"#utility.yul\":6995:7004   */\n      dup4\n        /* \"#utility.yul\":6991:7008   */\n      add\n        /* \"#utility.yul\":6982:6988   */\n      dup5\n        /* \"#utility.yul\":6938:7009   */\n      tag_104\n      jump\t// in\n    tag_209:\n        /* \"#utility.yul\":6794:7016   */\n      swap3\n      swap2\n      pop\n      pop\n      jump\t// out\n        /* \"#utility.yul\":7022:7531   */\n    tag_38:\n        /* \"#utility.yul\":7091:7097   */\n      0x00\n        /* \"#utility.yul\":7140:7142   */\n      0x20\n        /* \"#utility.yul\":7128:7137   */\n      dup3\n        /* \"#utility.yul\":7119:7126   */\n      dup5\n        /* \"#utility.yul\":7115:7138   */\n      sub\n        /* \"#utility.yul\":7111:7143   */\n      slt\n        /* \"#utility.yul\":7108:7227   */\n      iszero\n      tag_211\n      jumpi\n        /* \"#utility.yul\":7146:7225   */\n      tag_212\n      tag_80\n      jump\t// in\n    tag_212:\n        /* \"#utility.yul\":7108:7227   */\n    tag_211:\n        /* \"#utility.yul\":7294:7295   */\n      0x00\n        /* \"#utility.yul\":7283:7292   */\n      dup3\n        /* \"#utility.yul\":7279:7296   */\n      add\n        /* \"#utility.yul\":7266:7297   */\n      calldataload\n        /* \"#utility.yul\":7324:7342   */\n      0xffffffffffffffff\n        /* \"#utility.yul\":7316:7322   */\n      dup2\n        /* \"#utility.yul\":7313:7343   */\n      gt\n        /* \"#utility.yul\":7310:7427   */\n      iszero\n      tag_213\n      jumpi\n        /* \"#utility.yul\":7346:7425   */\n      tag_214\n      tag_81\n      jump\t// in\n    tag_214:\n        /* \"#utility.yul\":7310:7427   */\n    tag_213:\n        /* \"#utility.yul\":7451:7514   */\n      tag_215\n        /* \"#utility.yul\":7506:7513   */\n      dup5\n        /* \"#utility.yul\":7497:7503   */\n      dup3\n        /* \"#utility.yul\":7486:7495   */\n      dup6\n        /* \"#utility.yul\":7482:7504   */\n      add\n        /* \"#utility.yul\":7451:7514   */\n      tag_91\n      jump\t// in\n    tag_215:\n        /* \"#utility.yul\":7441:7514   */\n      swap2\n      pop\n        /* \"#utility.yul\":7237:7524   */\n      pop\n        /* \"#utility.yul\":7022:7531   */\n      swap3\n      swap2\n      pop\n      pop\n      jump\t// out\n        /* \"#utility.yul\":7537:7772   */\n    tag_105:\n        /* \"#utility.yul\":7677:7711   */\n      0x5365756c206c652070726f707269657461697265207065757420656666656374\n        /* \"#utility.yul\":7673:7674   */\n      0x00\n        /* \"#utility.yul\":7665:7671   */\n      dup3\n        /* \"#utility.yul\":7661:7675   */\n      add\n        /* \"#utility.yul\":7654:7712   */\n      mstore\n        /* \"#utility.yul\":7746:7764   */\n      0x75657220636574746520616374696f6e00000000000000000000000000000000\n        /* \"#utility.yul\":7741:7743   */\n      0x20\n        /* \"#utility.yul\":7733:7739   */\n      dup3\n        /* \"#utility.yul\":7729:7744   */\n      add\n        /* \"#utility.yul\":7722:7765   */\n      mstore\n        /* \"#utility.yul\":7537:7772   */\n      pop\n      jump\t// out\n        /* \"#utility.yul\":7778:8144   */\n    tag_106:\n        /* \"#utility.yul\":7920:7923   */\n      0x00\n        /* \"#utility.yul\":7941:8008   */\n      tag_218\n        /* \"#utility.yul\":8005:8007   */\n      0x30\n        /* \"#utility.yul\":8000:8003   */\n      dup4\n        /* \"#utility.yul\":7941:8008   */\n      tag_96\n      jump\t// in\n    tag_218:\n        /* \"#utility.yul\":7934:8008   */\n      swap2\n      pop\n        /* \"#utility.yul\":8017:8110   */\n      tag_219\n        /* \"#utility.yul\":8106:8109   */\n      dup3\n        /* \"#utility.yul\":8017:8110   */\n      tag_105\n      jump\t// in\n    tag_219:\n        /* \"#utility.yul\":8135:8137   */\n      0x40\n        /* \"#utility.yul\":8130:8133   */\n      dup3\n        /* \"#utility.yul\":8126:8138   */\n      add\n        /* \"#utility.yul\":8119:8138   */\n      swap1\n      pop\n        /* \"#utility.yul\":7778:8144   */\n      swap2\n      swap1\n      pop\n      jump\t// out\n        /* \"#utility.yul\":8150:8569   */\n    tag_44:\n        /* \"#utility.yul\":8316:8320   */\n      0x00\n        /* \"#utility.yul\":8354:8356   */\n      0x20\n        /* \"#utility.yul\":8343:8352   */\n      dup3\n        /* \"#utility.yul\":8339:8357   */\n      add\n        /* \"#utility.yul\":8331:8357   */\n      swap1\n      pop\n        /* \"#utility.yul\":8403:8412   */\n      dup2\n        /* \"#utility.yul\":8397:8401   */\n      dup2\n        /* \"#utility.yul\":8393:8413   */\n      sub\n        /* \"#utility.yul\":8389:8390   */\n      0x00\n        /* \"#utility.yul\":8378:8387   */\n      dup4\n        /* \"#utility.yul\":8374:8391   */\n      add\n        /* \"#utility.yul\":8367:8414   */\n      mstore\n        /* \"#utility.yul\":8431:8562   */\n      tag_221\n        /* \"#utility.yul\":8557:8561   */\n      dup2\n        /* \"#utility.yul\":8431:8562   */\n      tag_106\n      jump\t// in\n    tag_221:\n        /* \"#utility.yul\":8423:8562   */\n      swap1\n      pop\n        /* \"#utility.yul\":8150:8569   */\n      swap2\n      swap1\n      pop\n      jump\t// out\n        /* \"#utility.yul\":8575:8755   */\n    tag_107:\n        /* \"#utility.yul\":8623:8700   */\n      0x4e487b7100000000000000000000000000000000000000000000000000000000\n        /* \"#utility.yul\":8620:8621   */\n      0x00\n        /* \"#utility.yul\":8613:8701   */\n      mstore\n        /* \"#utility.yul\":8720:8724   */\n      0x11\n        /* \"#utility.yul\":8717:8718   */\n      0x04\n        /* \"#utility.yul\":8710:8725   */\n      mstore\n        /* \"#utility.yul\":8744:8748   */\n      0x24\n        /* \"#utility.yul\":8741:8742   */\n      0x00\n        /* \"#utility.yul\":8734:8749   */\n      revert\n        /* \"#utility.yul\":8761:8994   */\n    tag_47:\n        /* \"#utility.yul\":8800:8803   */\n      0x00\n        /* \"#utility.yul\":8823:8847   */\n      tag_224\n        /* \"#utility.yul\":8841:8846   */\n      dup3\n        /* \"#utility.yul\":8823:8847   */\n      tag_92\n      jump\t// in\n    tag_224:\n        /* \"#utility.yul\":8814:8847   */\n      swap2\n      pop\n        /* \"#utility.yul\":8869:8935   */\n      0xffffffffffffffffffffffffffffffffffffffffffffffffffffffffffffffff\n        /* \"#utility.yul\":8862:8867   */\n      dup3\n        /* \"#utility.yul\":8859:8936   */\n      sub\n        /* \"#utility.yul\":8856:8959   */\n      tag_225\n      jumpi\n        /* \"#utility.yul\":8939:8957   */\n      tag_226\n      tag_107\n      jump\t// in\n    tag_226:\n        /* \"#utility.yul\":8856:8959   */\n    tag_225:\n        /* \"#utility.yul\":8986:8987   */\n      0x01\n        /* \"#utility.yul\":8979:8984   */\n      dup3\n        /* \"#utility.yul\":8975:8988   */\n      add\n        /* \"#utility.yul\":8968:8988   */\n      swap1\n      pop\n        /* \"#utility.yul\":8761:8994   */\n      swap2\n      swap1\n      pop\n      jump\t// out\n        /* \"#utility.yul\":9000:9180   */\n    tag_108:\n        /* \"#utility.yul\":9048:9125   */\n      0x4e487b7100000000000000000000000000000000000000000000000000000000\n        /* \"#utility.yul\":9045:9046   */\n      0x00\n        /* \"#utility.yul\":9038:9126   */\n      mstore\n        /* \"#utility.yul\":9145:9149   */\n      0x22\n        /* \"#utility.yul\":9142:9143   */\n      0x04\n        /* \"#utility.yul\":9135:9150   */\n      mstore\n        /* \"#utility.yul\":9169:9173   */\n      0x24\n        /* \"#utility.yul\":9166:9167   */\n      0x00\n        /* \"#utility.yul\":9159:9174   */\n      revert\n        /* \"#utility.yul\":9186:9506   */\n    tag_56:\n        /* \"#utility.yul\":9230:9236   */\n      0x00\n        /* \"#utility.yul\":9267:9268   */\n      0x02\n        /* \"#utility.yul\":9261:9265   */\n      dup3\n        /* \"#utility.yul\":9257:9269   */\n      div\n        /* \"#utility.yul\":9247:9269   */\n      swap1\n      pop\n        /* \"#utility.yul\":9314:9315   */\n      0x01\n        /* \"#utility.yul\":9308:9312   */\n      dup3\n        /* \"#utility.yul\":9304:9316   */\n      and\n        /* \"#utility.yul\":9335:9353   */\n      dup1\n        /* \"#utility.yul\":9325:9406   */\n      tag_229\n      jumpi\n        /* \"#utility.yul\":9391:9395   */\n      0x7f\n        /* \"#utility.yul\":9383:9389   */\n      dup3\n        /* \"#utility.yul\":9379:9396   */\n      and\n        /* \"#utility.yul\":9369:9396   */\n      swap2\n      pop\n        /* \"#utility.yul\":9325:9406   */\n    tag_229:\n        /* \"#utility.yul\":9453:9455   */\n      0x20\n        /* \"#utility.yul\":9445:9451   */\n      dup3\n        /* \"#utility.yul\":9442:9456   */\n      lt\n        /* \"#utility.yul\":9422:9440   */\n      dup2\n        /* \"#utility.yul\":9419:9457   */\n      sub\n        /* \"#utility.yul\":9416:9500   */\n      tag_230\n      jumpi\n        /* \"#utility.yul\":9472:9490   */\n      tag_231\n      tag_108\n      jump\t// in\n    tag_231:\n        /* \"#utility.yul\":9416:9500   */\n    tag_230:\n        /* \"#utility.yul\":9237:9506   */\n      pop\n        /* \"#utility.yul\":9186:9506   */\n      swap2\n      swap1\n      pop\n      jump\t// out\n        /* \"#utility.yul\":9512:9653   */\n    tag_109:\n        /* \"#utility.yul\":9561:9565   */\n      0x00\n        /* \"#utility.yul\":9584:9587   */\n      dup2\n        /* \"#utility.yul\":9576:9587   */\n      swap1\n      pop\n        /* \"#utility.yul\":9607:9610   */\n      dup2\n        /* \"#utility.yul\":9604:9605   */\n      0x00\n        /* \"#utility.yul\":9597:9611   */\n      mstore\n        /* \"#utility.yul\":9641:9645   */\n      0x20\n        /* \"#utility.yul\":9638:9639   */\n      0x00\n        /* \"#utility.yul\":9628:9646   */\n      keccak256\n        /* \"#utility.yul\":9620:9646   */\n      swap1\n      pop\n        /* \"#utility.yul\":9512:9653   */\n      swap2\n      swap1\n      pop\n      jump\t// out\n        /* \"#utility.yul\":9659:9752   */\n    tag_110:\n        /* \"#utility.yul\":9696:9702   */\n      0x00\n        /* \"#utility.yul\":9743:9745   */\n      0x20\n        /* \"#utility.yul\":9738:9740   */\n      0x1f\n        /* \"#utility.yul\":9731:9736   */\n      dup4\n        /* \"#utility.yul\":9727:9741   */\n      add\n        /* \"#utility.yul\":9723:9746   */\n      div\n        /* \"#utility.yul\":9713:9746   */\n      swap1\n      pop\n        /* \"#utility.yul\":9659:9752   */\n      swap2\n      swap1\n      pop\n      jump\t// out\n        /* \"#utility.yul\":9758:9865   */\n    tag_111:\n        /* \"#utility.yul\":9802:9810   */\n      0x00\n        /* \"#utility.yul\":9852:9857   */\n      dup3\n        /* \"#utility.yul\":9846:9850   */\n      dup3\n        /* \"#utility.yul\":9842:9858   */\n      shl\n        /* \"#utility.yul\":9821:9858   */\n      swap1\n      pop\n        /* \"#utility.yul\":9758:9865   */\n      swap3\n      swap2\n      pop\n      pop\n      jump\t// out\n        /* \"#utility.yul\":9871:10264   */\n    tag_112:\n        /* \"#utility.yul\":9940:9946   */\n      0x00\n        /* \"#utility.yul\":9990:9991   */\n      0x08\n        /* \"#utility.yul\":9978:9988   */\n      dup4\n        /* \"#utility.yul\":9974:9992   */\n      mul\n        /* \"#utility.yul\":10013:10110   */\n      tag_236\n        /* \"#utility.yul\":10043:10109   */\n      0xffffffffffffffffffffffffffffffffffffffffffffffffffffffffffffffff\n        /* \"#utility.yul\":10032:10041   */\n      dup3\n        /* \"#utility.yul\":10013:10110   */\n      tag_111\n      jump\t// in\n    tag_236:\n        /* \"#utility.yul\":10131:10170   */\n      tag_237\n        /* \"#utility.yul\":10161:10169   */\n      dup7\n        /* \"#utility.yul\":10150:10159   */\n      dup4\n        /* \"#utility.yul\":10131:10170   */\n      tag_111\n      jump\t// in\n    tag_237:\n        /* \"#utility.yul\":10119:10170   */\n      swap6\n      pop\n        /* \"#utility.yul\":10203:10207   */\n      dup1\n        /* \"#utility.yul\":10199:10208   */\n      not\n        /* \"#utility.yul\":10192:10197   */\n      dup5\n        /* \"#utility.yul\":10188:10209   */\n      and\n        /* \"#utility.yul\":10179:10209   */\n      swap4\n      pop\n        /* \"#utility.yul\":10252:10256   */\n      dup1\n        /* \"#utility.yul\":10242:10250   */\n      dup7\n        /* \"#utility.yul\":10238:10257   */\n      and\n        /* \"#utility.yul\":10231:10236   */\n      dup5\n        /* \"#utility.yul\":10228:10258   */\n      or\n        /* \"#utility.yul\":10218:10258   */\n      swap3\n      pop\n        /* \"#utility.yul\":9947:10264   */\n      pop\n      pop\n        /* \"#utility.yul\":9871:10264   */\n      swap4\n      swap3\n      pop\n      pop\n      pop\n      jump\t// out\n        /* \"#utility.yul\":10270:10330   */\n    tag_113:\n        /* \"#utility.yul\":10298:10301   */\n      0x00\n        /* \"#utility.yul\":10319:10324   */\n      dup2\n        /* \"#utility.yul\":10312:10324   */\n      swap1\n      pop\n        /* \"#utility.yul\":10270:10330   */\n      swap2\n      swap1\n      pop\n      jump\t// out\n        /* \"#utility.yul\":10336:10478   */\n    tag_114:\n        /* \"#utility.yul\":10386:10395   */\n      0x00\n        /* \"#utility.yul\":10419:10472   */\n      tag_240\n        /* \"#utility.yul\":10437:10471   */\n      tag_241\n        /* \"#utility.yul\":10446:10470   */\n      tag_242\n        /* \"#utility.yul\":10464:10469   */\n      dup5\n        /* \"#utility.yul\":10446:10470   */\n      tag_92\n      jump\t// in\n    tag_242:\n        /* \"#utility.yul\":10437:10471   */\n      tag_113\n      jump\t// in\n    tag_241:\n        /* \"#utility.yul\":10419:10472   */\n      tag_92\n      jump\t// in\n    tag_240:\n        /* \"#utility.yul\":10406:10472   */\n      swap1\n      pop\n        /* \"#utility.yul\":10336:10478   */\n      swap2\n      swap1\n      pop\n      jump\t// out\n        /* \"#utility.yul\":10484:10559   */\n    tag_115:\n        /* \"#utility.yul\":10527:10530   */\n      0x00\n        /* \"#utility.yul\":10548:10553   */\n      dup2\n        /* \"#utility.yul\":10541:10553   */\n      swap1\n      pop\n        /* \"#utility.yul\":10484:10559   */\n      swap2\n      swap1\n      pop\n      jump\t// out\n        /* \"#utility.yul\":10565:10834   */\n    tag_116:\n        /* \"#utility.yul\":10675:10714   */\n      tag_245\n        /* \"#utility.yul\":10706:10713   */\n      dup4\n        /* \"#utility.yul\":10675:10714   */\n      tag_114\n      jump\t// in\n    tag_245:\n        /* \"#utility.yul\":10736:10827   */\n      tag_246\n        /* \"#utility.yul\":10785:10826   */\n      tag_247\n        /* \"#utility.yul\":10809:10825   */\n      dup3\n        /* \"#utility.yul\":10785:10826   */\n      tag_115\n      jump\t// in\n    tag_247:\n        /* \"#utility.yul\":10777:10783   */\n      dup5\n        /* \"#utility.yul\":10770:10774   */\n      dup5\n        /* \"#utility.yul\":10764:10775   */\n      sload\n        /* \"#utility.yul\":10736:10827   */\n      tag_112\n      jump\t// in\n    tag_246:\n        /* \"#utility.yul\":10730:10734   */\n      dup3\n        /* \"#utility.yul\":10723:10828   */\n      sstore\n        /* \"#utility.yul\":10641:10834   */\n      pop\n        /* \"#utility.yul\":10565:10834   */\n      pop\n      pop\n      pop\n      jump\t// out\n        /* \"#utility.yul\":10840:10913   */\n    tag_117:\n        /* \"#utility.yul\":10885:10888   */\n      0x00\n        /* \"#utility.yul\":10840:10913   */\n      swap1\n      jump\t// out\n        /* \"#utility.yul\":10919:11108   */\n    tag_118:\n        /* \"#utility.yul\":10996:11028   */\n      tag_250\n      tag_117\n      jump\t// in\n    tag_250:\n        /* \"#utility.yul\":11037:11102   */\n      tag_251\n        /* \"#utility.yul\":11095:11101   */\n      dup2\n        /* \"#utility.yul\":11087:11093   */\n      dup5\n        /* \"#utility.yul\":11081:11085   */\n      dup5\n        /* \"#utility.yul\":11037:11102   */\n      tag_116\n      jump\t// in\n    tag_251:\n        /* \"#utility.yul\":10972:11108   */\n      pop\n        /* \"#utility.yul\":10919:11108   */\n      pop\n      pop\n      jump\t// out\n        /* \"#utility.yul\":11114:11300   */\n    tag_119:\n        /* \"#utility.yul\":11174:11294   */\n    tag_253:\n        /* \"#utility.yul\":11191:11194   */\n      dup2\n        /* \"#utility.yul\":11184:11189   */\n      dup2\n        /* \"#utility.yul\":11181:11195   */\n      lt\n        /* \"#utility.yul\":11174:11294   */\n      iszero\n      tag_255\n      jumpi\n        /* \"#utility.yul\":11245:11284   */\n      tag_256\n        /* \"#utility.yul\":11282:11283   */\n      0x00\n        /* \"#utility.yul\":11275:11280   */\n      dup3\n        /* \"#utility.yul\":11245:11284   */\n      tag_118\n      jump\t// in\n    tag_256:\n        /* \"#utility.yul\":11218:11219   */\n      0x01\n        /* \"#utility.yul\":11211:11216   */\n      dup2\n        /* \"#utility.yul\":11207:11220   */\n      add\n        /* \"#utility.yul\":11198:11220   */\n      swap1\n      pop\n        /* \"#utility.yul\":11174:11294   */\n      jump(tag_253)\n    tag_255:\n        /* \"#utility.yul\":11114:11300   */\n      pop\n      pop\n      jump\t// out\n        /* \"#utility.yul\":11306:11849   */\n    tag_120:\n        /* \"#utility.yul\":11407:11409   */\n      0x1f\n        /* \"#utility.yul\":11402:11405   */\n      dup3\n        /* \"#utility.yul\":11399:11410   */\n      gt\n        /* \"#utility.yul\":11396:11842   */\n      iszero\n      tag_258\n      jumpi\n        /* \"#utility.yul\":11441:11479   */\n      tag_259\n        /* \"#utility.yul\":11473:11478   */\n      dup2\n        /* \"#utility.yul\":11441:11479   */\n      tag_109\n      jump\t// in\n    tag_259:\n        /* \"#utility.yul\":11525:11554   */\n      tag_260\n        /* \"#utility.yul\":11543:11553   */\n      dup5\n        /* \"#utility.yul\":11525:11554   */\n      tag_110\n      jump\t// in\n    tag_260:\n        /* \"#utility.yul\":11515:11523   */\n      dup2\n        /* \"#utility.yul\":11511:11555   */\n      add\n        /* \"#utility.yul\":11708:11710   */\n      0x20\n        /* \"#utility.yul\":11696:11706   */\n      dup6\n        /* \"#utility.yul\":11693:11711   */\n      lt\n        /* \"#utility.yul\":11690:11739   */\n      iszero\n      tag_261\n      jumpi\n        /* \"#utility.yul\":11729:11737   */\n      dup2\n        /* \"#utility.yul\":11714:11737   */\n      swap1\n      pop\n        /* \"#utility.yul\":11690:11739   */\n    tag_261:\n        /* \"#utility.yul\":11752:11832   */\n      tag_262\n        /* \"#utility.yul\":11808:11830   */\n      tag_263\n        /* \"#utility.yul\":11826:11829   */\n      dup6\n        /* \"#utility.yul\":11808:11830   */\n      tag_110\n      jump\t// in\n    tag_263:\n        /* \"#utility.yul\":11798:11806   */\n      dup4\n        /* \"#utility.yul\":11794:11831   */\n      add\n        /* \"#utility.yul\":11781:11792   */\n      dup3\n        /* \"#utility.yul\":11752:11832   */\n      tag_119\n      jump\t// in\n    tag_262:\n        /* \"#utility.yul\":11411:11842   */\n      pop\n      pop\n        /* \"#utility.yul\":11396:11842   */\n    tag_258:\n        /* \"#utility.yul\":11306:11849   */\n      pop\n      pop\n      pop\n      jump\t// out\n        /* \"#utility.yul\":11855:11972   */\n    tag_121:\n        /* \"#utility.yul\":11909:11917   */\n      0x00\n        /* \"#utility.yul\":11959:11964   */\n      dup3\n        /* \"#utility.yul\":11953:11957   */\n      dup3\n        /* \"#utility.yul\":11949:11965   */\n      shr\n        /* \"#utility.yul\":11928:11965   */\n      swap1\n      pop\n        /* \"#utility.yul\":11855:11972   */\n      swap3\n      swap2\n      pop\n      pop\n      jump\t// out\n        /* \"#utility.yul\":11978:12147   */\n    tag_122:\n        /* \"#utility.yul\":12022:12028   */\n      0x00\n        /* \"#utility.yul\":12055:12106   */\n      tag_266\n        /* \"#utility.yul\":12103:12104   */\n      0x00\n        /* \"#utility.yul\":12099:12105   */\n      not\n        /* \"#utility.yul\":12091:12096   */\n      dup5\n        /* \"#utility.yul\":12088:12089   */\n      0x08\n        /* \"#utility.yul\":12084:12097   */\n      mul\n        /* \"#utility.yul\":12055:12106   */\n      tag_121\n      jump\t// in\n    tag_266:\n        /* \"#utility.yul\":12051:12107   */\n      not\n        /* \"#utility.yul\":12136:12140   */\n      dup1\n        /* \"#utility.yul\":12130:12134   */\n      dup4\n        /* \"#utility.yul\":12126:12141   */\n      and\n        /* \"#utility.yul\":12116:12141   */\n      swap2\n      pop\n        /* \"#utility.yul\":12029:12147   */\n      pop\n        /* \"#utility.yul\":11978:12147   */\n      swap3\n      swap2\n      pop\n      pop\n      jump\t// out\n        /* \"#utility.yul\":12152:12447   */\n    tag_123:\n        /* \"#utility.yul\":12228:12232   */\n      0x00\n        /* \"#utility.yul\":12374:12403   */\n      tag_268\n        /* \"#utility.yul\":12399:12402   */\n      dup4\n        /* \"#utility.yul\":12393:12397   */\n      dup4\n        /* \"#utility.yul\":12374:12403   */\n      tag_122\n      jump\t// in\n    tag_268:\n        /* \"#utility.yul\":12366:12403   */\n      swap2\n      pop\n        /* \"#utility.yul\":12436:12439   */\n      dup3\n        /* \"#utility.yul\":12433:12434   */\n      0x02\n        /* \"#utility.yul\":12429:12440   */\n      mul\n        /* \"#utility.yul\":12423:12427   */\n      dup3\n        /* \"#utility.yul\":12420:12441   */\n      or\n        /* \"#utility.yul\":12412:12441   */\n      swap1\n      pop\n        /* \"#utility.yul\":12152:12447   */\n      swap3\n      swap2\n      pop\n      pop\n      jump\t// out\n        /* \"#utility.yul\":12452:13847   */\n    tag_49:\n        /* \"#utility.yul\":12569:12606   */\n      tag_270\n        /* \"#utility.yul\":12602:12605   */\n      dup3\n        /* \"#utility.yul\":12569:12606   */\n      tag_95\n      jump\t// in\n    tag_270:\n        /* \"#utility.yul\":12671:12689   */\n      0xffffffffffffffff\n        /* \"#utility.yul\":12663:12669   */\n      dup2\n        /* \"#utility.yul\":12660:12690   */\n      gt\n        /* \"#utility.yul\":12657:12713   */\n      iszero\n      tag_271\n      jumpi\n        /* \"#utility.yul\":12693:12711   */\n      tag_272\n      tag_85\n      jump\t// in\n    tag_272:\n        /* \"#utility.yul\":12657:12713   */\n    tag_271:\n        /* \"#utility.yul\":12737:12775   */\n      tag_273\n        /* \"#utility.yul\":12769:12773   */\n      dup3\n        /* \"#utility.yul\":12763:12774   */\n      sload\n        /* \"#utility.yul\":12737:12775   */\n      tag_56\n      jump\t// in\n    tag_273:\n        /* \"#utility.yul\":12822:12889   */\n      tag_274\n        /* \"#utility.yul\":12882:12888   */\n      dup3\n        /* \"#utility.yul\":12874:12880   */\n      dup3\n        /* \"#utility.yul\":12868:12872   */\n      dup6\n        /* \"#utility.yul\":12822:12889   */\n      tag_120\n      jump\t// in\n    tag_274:\n        /* \"#utility.yul\":12916:12917   */\n      0x00\n        /* \"#utility.yul\":12940:12944   */\n      0x20\n        /* \"#utility.yul\":12927:12944   */\n      swap1\n      pop\n        /* \"#utility.yul\":12972:12974   */\n      0x1f\n        /* \"#utility.yul\":12964:12970   */\n      dup4\n        /* \"#utility.yul\":12961:12975   */\n      gt\n        /* \"#utility.yul\":12989:12990   */\n      0x01\n        /* \"#utility.yul\":12984:13602   */\n      dup2\n      eq\n      tag_276\n      jumpi\n        /* \"#utility.yul\":13646:13647   */\n      0x00\n        /* \"#utility.yul\":13663:13669   */\n      dup5\n        /* \"#utility.yul\":13660:13737   */\n      iszero\n      tag_277\n      jumpi\n        /* \"#utility.yul\":13712:13721   */\n      dup3\n        /* \"#utility.yul\":13707:13710   */\n      dup8\n        /* \"#utility.yul\":13703:13722   */\n      add\n        /* \"#utility.yul\":13697:13723   */\n      mload\n        /* \"#utility.yul\":13688:13723   */\n      swap1\n      pop\n        /* \"#utility.yul\":13660:13737   */\n    tag_277:\n        /* \"#utility.yul\":13763:13830   */\n      tag_278\n        /* \"#utility.yul\":13823:13829   */\n      dup6\n        /* \"#utility.yul\":13816:13821   */\n      dup3\n        /* \"#utility.yul\":13763:13830   */\n      tag_123\n      jump\t// in\n    tag_278:\n        /* \"#utility.yul\":13757:13761   */\n      dup7\n        /* \"#utility.yul\":13750:13831   */\n      sstore\n        /* \"#utility.yul\":13619:13841   */\n      pop\n        /* \"#utility.yul\":12954:13841   */\n      jump(tag_275)\n        /* \"#utility.yul\":12984:13602   */\n    tag_276:\n        /* \"#utility.yul\":13036:13040   */\n      0x1f\n        /* \"#utility.yul\":13032:13041   */\n      not\n        /* \"#utility.yul\":13024:13030   */\n      dup5\n        /* \"#utility.yul\":13020:13042   */\n      and\n        /* \"#utility.yul\":13070:13107   */\n      tag_279\n        /* \"#utility.yul\":13102:13106   */\n      dup7\n        /* \"#utility.yul\":13070:13107   */\n      tag_109\n      jump\t// in\n    tag_279:\n        /* \"#utility.yul\":13129:13130   */\n      0x00\n        /* \"#utility.yul\":13143:13351   */\n    tag_280:\n        /* \"#utility.yul\":13157:13164   */\n      dup3\n        /* \"#utility.yul\":13154:13155   */\n      dup2\n        /* \"#utility.yul\":13151:13165   */\n      lt\n        /* \"#utility.yul\":13143:13351   */\n      iszero\n      tag_282\n      jumpi\n        /* \"#utility.yul\":13236:13245   */\n      dup5\n        /* \"#utility.yul\":13231:13234   */\n      dup10\n        /* \"#utility.yul\":13227:13246   */\n      add\n        /* \"#utility.yul\":13221:13247   */\n      mload\n        /* \"#utility.yul\":13213:13219   */\n      dup3\n        /* \"#utility.yul\":13206:13248   */\n      sstore\n        /* \"#utility.yul\":13287:13288   */\n      0x01\n        /* \"#utility.yul\":13279:13285   */\n      dup3\n        /* \"#utility.yul\":13275:13289   */\n      add\n        /* \"#utility.yul\":13265:13289   */\n      swap2\n      pop\n        /* \"#utility.yul\":13334:13336   */\n      0x20\n        /* \"#utility.yul\":13323:13332   */\n      dup6\n        /* \"#utility.yul\":13319:13337   */\n      add\n        /* \"#utility.yul\":13306:13337   */\n      swap5\n      pop\n        /* \"#utility.yul\":13180:13184   */\n      0x20\n        /* \"#utility.yul\":13177:13178   */\n      dup2\n        /* \"#utility.yul\":13173:13185   */\n      add\n        /* \"#utility.yul\":13168:13185   */\n      swap1\n      pop\n        /* \"#utility.yul\":13143:13351   */\n      jump(tag_280)\n    tag_282:\n        /* \"#utility.yul\":13379:13385   */\n      dup7\n        /* \"#utility.yul\":13370:13377   */\n      dup4\n        /* \"#utility.yul\":13367:13386   */\n      lt\n        /* \"#utility.yul\":13364:13543   */\n      iszero\n      tag_283\n      jumpi\n        /* \"#utility.yul\":13437:13446   */\n      dup5\n        /* \"#utility.yul\":13432:13435   */\n      dup10\n        /* \"#utility.yul\":13428:13447   */\n      add\n        /* \"#utility.yul\":13422:13448   */\n      mload\n        /* \"#utility.yul\":13480:13528   */\n      tag_284\n        /* \"#utility.yul\":13522:13526   */\n      0x1f\n        /* \"#utility.yul\":13514:13520   */\n      dup10\n        /* \"#utility.yul\":13510:13527   */\n      and\n        /* \"#utility.yul\":13499:13508   */\n      dup3\n        /* \"#utility.yul\":13480:13528   */\n      tag_122\n      jump\t// in\n    tag_284:\n        /* \"#utility.yul\":13472:13478   */\n      dup4\n        /* \"#utility.yul\":13465:13529   */\n      sstore\n        /* \"#utility.yul\":13387:13543   */\n      pop\n        /* \"#utility.yul\":13364:13543   */\n    tag_283:\n        /* \"#utility.yul\":13589:13590   */\n      0x01\n        /* \"#utility.yul\":13585:13586   */\n      0x02\n        /* \"#utility.yul\":13577:13583   */\n      dup9\n        /* \"#utility.yul\":13573:13587   */\n      mul\n        /* \"#utility.yul\":13569:13591   */\n      add\n        /* \"#utility.yul\":13563:13567   */\n      dup9\n        /* \"#utility.yul\":13556:13592   */\n      sstore\n        /* \"#utility.yul\":12991:13602   */\n      pop\n      pop\n      pop\n        /* \"#utility.yul\":12954:13841   */\n    tag_275:\n      pop\n        /* \"#utility.yul\":12544:13847   */\n      pop\n      pop\n      pop\n        /* \"#utility.yul\":12452:13847   */\n      pop\n      pop\n      jump\t// out\n        /* \"#utility.yul\":13853:14001   */\n    tag_124:\n        /* \"#utility.yul\":13955:13966   */\n      0x00\n        /* \"#utility.yul\":13992:13995   */\n      dup2\n        /* \"#utility.yul\":13977:13995   */\n      swap1\n      pop\n        /* \"#utility.yul\":13853:14001   */\n      swap3\n      swap2\n      pop\n      pop\n      jump\t// out\n        /* \"#utility.yul\":14007:14397   */\n    tag_125:\n        /* \"#utility.yul\":14113:14116   */\n      0x00\n        /* \"#utility.yul\":14141:14180   */\n      tag_287\n        /* \"#utility.yul\":14174:14179   */\n      dup3\n        /* \"#utility.yul\":14141:14180   */\n      tag_95\n      jump\t// in\n    tag_287:\n        /* \"#utility.yul\":14196:14285   */\n      tag_288\n        /* \"#utility.yul\":14278:14284   */\n      dup2\n        /* \"#utility.yul\":14273:14276   */\n      dup6\n        /* \"#utility.yul\":14196:14285   */\n      tag_124\n      jump\t// in\n    tag_288:\n        /* \"#utility.yul\":14189:14285   */\n      swap4\n      pop\n        /* \"#utility.yul\":14294:14359   */\n      tag_289\n        /* \"#utility.yul\":14352:14358   */\n      dup2\n        /* \"#utility.yul\":14347:14350   */\n      dup6\n        /* \"#utility.yul\":14340:14344   */\n      0x20\n        /* \"#utility.yul\":14333:14338   */\n      dup7\n        /* \"#utility.yul\":14329:14345   */\n      add\n        /* \"#utility.yul\":14294:14359   */\n      tag_97\n      jump\t// in\n    tag_289:\n        /* \"#utility.yul\":14384:14390   */\n      dup1\n        /* \"#utility.yul\":14379:14382   */\n      dup5\n        /* \"#utility.yul\":14375:14391   */\n      add\n        /* \"#utility.yul\":14368:14391   */\n      swap2\n      pop\n        /* \"#utility.yul\":14117:14397   */\n      pop\n        /* \"#utility.yul\":14007:14397   */\n      swap3\n      swap2\n      pop\n      pop\n      jump\t// out\n        /* \"#utility.yul\":14403:14678   */\n    tag_52:\n        /* \"#utility.yul\":14535:14538   */\n      0x00\n        /* \"#utility.yul\":14557:14652   */\n      tag_291\n        /* \"#utility.yul\":14648:14651   */\n      dup3\n        /* \"#utility.yul\":14639:14645   */\n      dup5\n        /* \"#utility.yul\":14557:14652   */\n      tag_125\n      jump\t// in\n    tag_291:\n        /* \"#utility.yul\":14550:14652   */\n      swap2\n      pop\n        /* \"#utility.yul\":14669:14672   */\n      dup2\n        /* \"#utility.yul\":14662:14672   */\n      swap1\n      pop\n        /* \"#utility.yul\":14403:14678   */\n      swap3\n      swap2\n      pop\n      pop\n      jump\t// out\n        /* \"#utility.yul\":14684:15308   */\n    tag_54:\n        /* \"#utility.yul\":14873:14877   */\n      0x00\n        /* \"#utility.yul\":14911:14913   */\n      0x60\n        /* \"#utility.yul\":14900:14909   */\n      dup3\n        /* \"#utility.yul\":14896:14914   */\n      add\n        /* \"#utility.yul\":14888:14914   */\n      swap1\n      pop\n        /* \"#utility.yul\":14960:14969   */\n      dup2\n        /* \"#utility.yul\":14954:14958   */\n      dup2\n        /* \"#utility.yul\":14950:14970   */\n      sub\n        /* \"#utility.yul\":14946:14947   */\n      0x00\n        /* \"#utility.yul\":14935:14944   */\n      dup4\n        /* \"#utility.yul\":14931:14948   */\n      add\n        /* \"#utility.yul\":14924:14971   */\n      mstore\n        /* \"#utility.yul\":14988:15066   */\n      tag_293\n        /* \"#utility.yul\":15061:15065   */\n      dup2\n        /* \"#utility.yul\":15052:15058   */\n      dup7\n        /* \"#utility.yul\":14988:15066   */\n      tag_98\n      jump\t// in\n    tag_293:\n        /* \"#utility.yul\":14980:15066   */\n      swap1\n      pop\n        /* \"#utility.yul\":15113:15122   */\n      dup2\n        /* \"#utility.yul\":15107:15111   */\n      dup2\n        /* \"#utility.yul\":15103:15123   */\n      sub\n        /* \"#utility.yul\":15098:15100   */\n      0x20\n        /* \"#utility.yul\":15087:15096   */\n      dup4\n        /* \"#utility.yul\":15083:15101   */\n      add\n        /* \"#utility.yul\":15076:15124   */\n      mstore\n        /* \"#utility.yul\":15141:15219   */\n      tag_294\n        /* \"#utility.yul\":15214:15218   */\n      dup2\n        /* \"#utility.yul\":15205:15211   */\n      dup6\n        /* \"#utility.yul\":15141:15219   */\n      tag_98\n      jump\t// in\n    tag_294:\n        /* \"#utility.yul\":15133:15219   */\n      swap1\n      pop\n        /* \"#utility.yul\":15229:15301   */\n      tag_295\n        /* \"#utility.yul\":15297:15299   */\n      0x40\n        /* \"#utility.yul\":15286:15295   */\n      dup4\n        /* \"#utility.yul\":15282:15300   */\n      add\n        /* \"#utility.yul\":15273:15279   */\n      dup5\n        /* \"#utility.yul\":15229:15301   */\n      tag_101\n      jump\t// in\n    tag_295:\n        /* \"#utility.yul\":14684:15308   */\n      swap5\n      swap4\n      pop\n      pop\n      pop\n      pop\n      jump\t// out\n        /* \"#utility.yul\":15314:15484   */\n    tag_126:\n        /* \"#utility.yul\":15454:15476   */\n      0x4944206465206c6976726520696e76616c696465000000000000000000000000\n        /* \"#utility.yul\":15450:15451   */\n      0x00\n        /* \"#utility.yul\":15442:15448   */\n      dup3\n        /* \"#utility.yul\":15438:15452   */\n      add\n        /* \"#utility.yul\":15431:15477   */\n      mstore\n        /* \"#utility.yul\":15314:15484   */\n      pop\n      jump\t// out\n        /* \"#utility.yul\":15490:15856   */\n    tag_127:\n        /* \"#utility.yul\":15632:15635   */\n      0x00\n        /* \"#utility.yul\":15653:15720   */\n      tag_298\n        /* \"#utility.yul\":15717:15719   */\n      0x14\n        /* \"#utility.yul\":15712:15715   */\n      dup4\n        /* \"#utility.yul\":15653:15720   */\n      tag_96\n      jump\t// in\n    tag_298:\n        /* \"#utility.yul\":15646:15720   */\n      swap2\n      pop\n        /* \"#utility.yul\":15729:15822   */\n      tag_299\n        /* \"#utility.yul\":15818:15821   */\n      dup3\n        /* \"#utility.yul\":15729:15822   */\n      tag_126\n      jump\t// in\n    tag_299:\n        /* \"#utility.yul\":15847:15849   */\n      0x20\n        /* \"#utility.yul\":15842:15845   */\n      dup3\n        /* \"#utility.yul\":15838:15850   */\n      add\n        /* \"#utility.yul\":15831:15850   */\n      swap1\n      pop\n        /* \"#utility.yul\":15490:15856   */\n      swap2\n      swap1\n      pop\n      jump\t// out\n        /* \"#utility.yul\":15862:16281   */\n    tag_70:\n        /* \"#utility.yul\":16028:16032   */\n      0x00\n        /* \"#utility.yul\":16066:16068   */\n      0x20\n        /* \"#utility.yul\":16055:16064   */\n      dup3\n        /* \"#utility.yul\":16051:16069   */\n      add\n        /* \"#utility.yul\":16043:16069   */\n      swap1\n      pop\n        /* \"#utility.yul\":16115:16124   */\n      dup2\n        /* \"#utility.yul\":16109:16113   */\n      dup2\n        /* \"#utility.yul\":16105:16125   */\n      sub\n        /* \"#utility.yul\":16101:16102   */\n      0x00\n        /* \"#utility.yul\":16090:16099   */\n      dup4\n        /* \"#utility.yul\":16086:16103   */\n      add\n        /* \"#utility.yul\":16079:16126   */\n      mstore\n        /* \"#utility.yul\":16143:16274   */\n      tag_301\n        /* \"#utility.yul\":16269:16273   */\n      dup2\n        /* \"#utility.yul\":16143:16274   */\n      tag_127\n      jump\t// in\n    tag_301:\n        /* \"#utility.yul\":16135:16274   */\n      swap1\n      pop\n        /* \"#utility.yul\":15862:16281   */\n      swap2\n      swap1\n      pop\n      jump\t// out\n        /* \"#utility.yul\":16287:16466   */\n    tag_128:\n        /* \"#utility.yul\":16427:16458   */\n      0x4c65206c69767265206e276573742070617320646973706f6e69626c65000000\n        /* \"#utility.yul\":16423:16424   */\n      0x00\n        /* \"#utility.yul\":16415:16421   */\n      dup3\n        /* \"#utility.yul\":16411:16425   */\n      add\n        /* \"#utility.yul\":16404:16459   */\n      mstore\n        /* \"#utility.yul\":16287:16466   */\n      pop\n      jump\t// out\n        /* \"#utility.yul\":16472:16838   */\n    tag_129:\n        /* \"#utility.yul\":16614:16617   */\n      0x00\n        /* \"#utility.yul\":16635:16702   */\n      tag_304\n        /* \"#utility.yul\":16699:16701   */\n      0x1d\n        /* \"#utility.yul\":16694:16697   */\n      dup4\n        /* \"#utility.yul\":16635:16702   */\n      tag_96\n      jump\t// in\n    tag_304:\n        /* \"#utility.yul\":16628:16702   */\n      swap2\n      pop\n        /* \"#utility.yul\":16711:16804   */\n      tag_305\n        /* \"#utility.yul\":16800:16803   */\n      dup3\n        /* \"#utility.yul\":16711:16804   */\n      tag_128\n      jump\t// in\n    tag_305:\n        /* \"#utility.yul\":16829:16831   */\n      0x20\n        /* \"#utility.yul\":16824:16827   */\n      dup3\n        /* \"#utility.yul\":16820:16832   */\n      add\n        /* \"#utility.yul\":16813:16832   */\n      swap1\n      pop\n        /* \"#utility.yul\":16472:16838   */\n      swap2\n      swap1\n      pop\n      jump\t// out\n        /* \"#utility.yul\":16844:17263   */\n    tag_73:\n        /* \"#utility.yul\":17010:17014   */\n      0x00\n        /* \"#utility.yul\":17048:17050   */\n      0x20\n        /* \"#utility.yul\":17037:17046   */\n      dup3\n        /* \"#utility.yul\":17033:17051   */\n      add\n        /* \"#utility.yul\":17025:17051   */\n      swap1\n      pop\n        /* \"#utility.yul\":17097:17106   */\n      dup2\n        /* \"#utility.yul\":17091:17095   */\n      dup2\n        /* \"#utility.yul\":17087:17107   */\n      sub\n        /* \"#utility.yul\":17083:17084   */\n      0x00\n        /* \"#utility.yul\":17072:17081   */\n      dup4\n        /* \"#utility.yul\":17068:17085   */\n      add\n        /* \"#utility.yul\":17061:17108   */\n      mstore\n        /* \"#utility.yul\":17125:17256   */\n      tag_307\n        /* \"#utility.yul\":17251:17255   */\n      dup2\n        /* \"#utility.yul\":17125:17256   */\n      tag_129\n      jump\t// in\n    tag_307:\n        /* \"#utility.yul\":17117:17256   */\n      swap1\n      pop\n        /* \"#utility.yul\":16844:17263   */\n      swap2\n      swap1\n      pop\n      jump\t// out\n\n    auxdata: 0xa26469706673582212203e5a58ea690a968890a8e54d47efd1744fe5cc6914205498c4555c1507c191df64736f6c63430008120033\n}\n",
				"bytecode": {
					"linkReferences": {},
					"object": "608060405234801561001057600080fd5b50336000806101000a81548173ffffffffffffffffffffffffffffffffffffffff021916908373ffffffffffffffffffffffffffffffffffffffff160217905550610fee806100606000396000f3fe608060405234801561001057600080fd5b506004361061007d5760003560e01c80638735386c1161005b5780638735386c146100ed5780638da5cb5b1461011d578063b905ad781461013b578063c93c26b6146101595761007d565b80630426622414610082578063687440461461009e5780637e490a9e146100d1575b600080fd5b61009c600480360381019061009791906107ed565b610189565b005b6100b860048036038101906100b39190610878565b610329565b6040516100c8949392919061094e565b60405180910390f35b6100eb60048036038101906100e69190610878565b610476565b005b61010760048036038101906101029190610878565b610594565b60405161011491906109a1565b60405180910390f35b610125610605565b60405161013291906109fd565b60405180910390f35b610143610629565b60405161015091906109a1565b60405180910390f35b610173600480360381019061016e9190610a18565b61062f565b60405161018091906109a1565b60405180910390f35b60008054906101000a900473ffffffffffffffffffffffffffffffffffffffff1673ffffffffffffffffffffffffffffffffffffffff163373ffffffffffffffffffffffffffffffffffffffff1614610217576040517f08c379a000000000000000000000000000000000000000000000000000000000815260040161020e90610ad3565b60405180910390fd5b6003600081548092919061022a90610b22565b9190505550604051806080016040528084815260200183815260200160011515815260200182815250600160006003548152602001908152602001600020600082015181600001908161027d9190610d76565b5060208201518160010190816102939190610d76565b5060408201518160020160006101000a81548160ff021916908315150217905550606082015181600301559050506003546002846040516102d49190610e84565b9081526020016040518091039020819055506003547ff0fcaad7067cab5360bc9a949ef7219d84c55a5c85fc70b87feb39e9c6538def84848460405161031c93929190610e9b565b60405180910390a2505050565b600160205280600052604060002060009150905080600001805461034c90610b99565b80601f016020809104026020016040519081016040528092919081815260200182805461037890610b99565b80156103c55780601f1061039a576101008083540402835291602001916103c5565b820191906000526020600020905b8154815290600101906020018083116103a857829003601f168201915b5050505050908060010180546103da90610b99565b80601f016020809104026020016040519081016040528092919081815260200182805461040690610b99565b80156104535780601f1061042857610100808354040283529160200191610453565b820191906000526020600020905b81548152906001019060200180831161043657829003601f168201915b5050505050908060020160009054906101000a900460ff16908060030154905084565b60035481111580156104885750600081115b6104c7576040517f08c379a00000000000000000000000000000000000000000000000000000000081526004016104be90610f2c565b60405180910390fd5b6001600082815260200190815260200160002060020160009054906101000a900460ff1661052a576040517f08c379a000000000000000000000000000000000000000000000000000000000815260040161052190610f98565b60405180910390fd5b60006001600083815260200190815260200160002060020160006101000a81548160ff021916908315150217905550807f7534124779d4d1eaf9cabba5f94b2b281856aba81c295cde4c9e69483b04b8cc3360405161058991906109fd565b60405180910390a250565b600060035482111580156105a85750600082115b6105e7576040517f08c379a00000000000000000000000000000000000000000000000000000000081526004016105de90610f2c565b60405180910390fd5b60016000838152602001908152602001600020600301549050919050565b60008054906101000a900473ffffffffffffffffffffffffffffffffffffffff1681565b60035481565b6002818051602081018201805184825260208301602085012081835280955050505050506000915090505481565b6000604051905090565b600080fd5b600080fd5b600080fd5b600080fd5b6000601f19601f8301169050919050565b7f4e487b7100000000000000000000000000000000000000000000000000000000600052604160045260246000fd5b6106c48261067b565b810181811067ffffffffffffffff821117156106e3576106e261068c565b5b80604052505050565b60006106f661065d565b905061070282826106bb565b919050565b600067ffffffffffffffff8211156107225761072161068c565b5b61072b8261067b565b9050602081019050919050565b82818337600083830152505050565b600061075a61075584610707565b6106ec565b90508281526020810184848401111561077657610775610676565b5b610781848285610738565b509392505050565b600082601f83011261079e5761079d610671565b5b81356107ae848260208601610747565b91505092915050565b6000819050919050565b6107ca816107b7565b81146107d557600080fd5b50565b6000813590506107e7816107c1565b92915050565b60008060006060848603121561080657610805610667565b5b600084013567ffffffffffffffff8111156108245761082361066c565b5b61083086828701610789565b935050602084013567ffffffffffffffff8111156108515761085061066c565b5b61085d86828701610789565b925050604061086e868287016107d8565b9150509250925092565b60006020828403121561088e5761088d610667565b5b600061089c848285016107d8565b91505092915050565b600081519050919050565b600082825260208201905092915050565b60005b838110156108df5780820151818401526020810190506108c4565b60008484015250505050565b60006108f6826108a5565b61090081856108b0565b93506109108185602086016108c1565b6109198161067b565b840191505092915050565b60008115159050919050565b61093981610924565b82525050565b610948816107b7565b82525050565b6000608082019050818103600083015261096881876108eb565b9050818103602083015261097c81866108eb565b905061098b6040830185610930565b610998606083018461093f565b95945050505050565b60006020820190506109b6600083018461093f565b92915050565b600073ffffffffffffffffffffffffffffffffffffffff82169050919050565b60006109e7826109bc565b9050919050565b6109f7816109dc565b82525050565b6000602082019050610a1260008301846109ee565b92915050565b600060208284031215610a2e57610a2d610667565b5b600082013567ffffffffffffffff811115610a4c57610a4b61066c565b5b610a5884828501610789565b91505092915050565b7f5365756c206c652070726f70726965746169726520706575742065666665637460008201527f75657220636574746520616374696f6e00000000000000000000000000000000602082015250565b6000610abd6030836108b0565b9150610ac882610a61565b604082019050919050565b60006020820190508181036000830152610aec81610ab0565b9050919050565b7f4e487b7100000000000000000000000000000000000000000000000000000000600052601160045260246000fd5b6000610b2d826107b7565b91507fffffffffffffffffffffffffffffffffffffffffffffffffffffffffffffffff8203610b5f57610b5e610af3565b5b600182019050919050565b7f4e487b7100000000000000000000000000000000000000000000000000000000600052602260045260246000fd5b60006002820490506001821680610bb157607f821691505b602082108103610bc457610bc3610b6a565b5b50919050565b60008190508160005260206000209050919050565b60006020601f8301049050919050565b600082821b905092915050565b600060088302610c2c7fffffffffffffffffffffffffffffffffffffffffffffffffffffffffffffffff82610bef565b610c368683610bef565b95508019841693508086168417925050509392505050565b6000819050919050565b6000610c73610c6e610c69846107b7565b610c4e565b6107b7565b9050919050565b6000819050919050565b610c8d83610c58565b610ca1610c9982610c7a565b848454610bfc565b825550505050565b600090565b610cb6610ca9565b610cc1818484610c84565b505050565b5b81811015610ce557610cda600082610cae565b600181019050610cc7565b5050565b601f821115610d2a57610cfb81610bca565b610d0484610bdf565b81016020851015610d13578190505b610d27610d1f85610bdf565b830182610cc6565b50505b505050565b600082821c905092915050565b6000610d4d60001984600802610d2f565b1980831691505092915050565b6000610d668383610d3c565b9150826002028217905092915050565b610d7f826108a5565b67ffffffffffffffff811115610d9857610d9761068c565b5b610da28254610b99565b610dad828285610ce9565b600060209050601f831160018114610de05760008415610dce578287015190505b610dd88582610d5a565b865550610e40565b601f198416610dee86610bca565b60005b82811015610e1657848901518255600182019150602085019450602081019050610df1565b86831015610e335784890151610e2f601f891682610d3c565b8355505b6001600288020188555050505b505050505050565b600081905092915050565b6000610e5e826108a5565b610e688185610e48565b9350610e788185602086016108c1565b80840191505092915050565b6000610e908284610e53565b915081905092915050565b60006060820190508181036000830152610eb581866108eb565b90508181036020830152610ec981856108eb565b9050610ed8604083018461093f565b949350505050565b7f4944206465206c6976726520696e76616c696465000000000000000000000000600082015250565b6000610f166014836108b0565b9150610f2182610ee0565b602082019050919050565b60006020820190508181036000830152610f4581610f09565b9050919050565b7f4c65206c69767265206e276573742070617320646973706f6e69626c65000000600082015250565b6000610f82601d836108b0565b9150610f8d82610f4c565b602082019050919050565b60006020820190508181036000830152610fb181610f75565b905091905056fea26469706673582212203e5a58ea690a968890a8e54d47efd1744fe5cc6914205498c4555c1507c191df64736f6c63430008120033",
					"opcodes": "PUSH1 0x80 PUSH1 0x40 MSTORE CALLVALUE DUP1 ISZERO PUSH2 0x10 JUMPI PUSH1 0x0 DUP1 REVERT JUMPDEST POP CALLER PUSH1 0x0 DUP1 PUSH2 0x100 EXP DUP2 SLOAD DUP2 PUSH20 0xFFFFFFFFFFFFFFFFFFFFFFFFFFFFFFFFFFFFFFFF MUL NOT AND SWAP1 DUP4 PUSH20 0xFFFFFFFFFFFFFFFFFFFFFFFFFFFFFFFFFFFFFFFF AND MUL OR SWAP1 SSTORE POP PUSH2 0xFEE DUP1 PUSH2 0x60 PUSH1 0x0 CODECOPY PUSH1 0x0 RETURN INVALID PUSH1 0x80 PUSH1 0x40 MSTORE CALLVALUE DUP1 ISZERO PUSH2 0x10 JUMPI PUSH1 0x0 DUP1 REVERT JUMPDEST POP PUSH1 0x4 CALLDATASIZE LT PUSH2 0x7D JUMPI PUSH1 0x0 CALLDATALOAD PUSH1 0xE0 SHR DUP1 PUSH4 0x8735386C GT PUSH2 0x5B JUMPI DUP1 PUSH4 0x8735386C EQ PUSH2 0xED JUMPI DUP1 PUSH4 0x8DA5CB5B EQ PUSH2 0x11D JUMPI DUP1 PUSH4 0xB905AD78 EQ PUSH2 0x13B JUMPI DUP1 PUSH4 0xC93C26B6 EQ PUSH2 0x159 JUMPI PUSH2 0x7D JUMP JUMPDEST DUP1 PUSH4 0x4266224 EQ PUSH2 0x82 JUMPI DUP1 PUSH4 0x68744046 EQ PUSH2 0x9E JUMPI DUP1 PUSH4 0x7E490A9E EQ PUSH2 0xD1 JUMPI JUMPDEST PUSH1 0x0 DUP1 REVERT JUMPDEST PUSH2 0x9C PUSH1 0x4 DUP1 CALLDATASIZE SUB DUP2 ADD SWAP1 PUSH2 0x97 SWAP2 SWAP1 PUSH2 0x7ED JUMP JUMPDEST PUSH2 0x189 JUMP JUMPDEST STOP JUMPDEST PUSH2 0xB8 PUSH1 0x4 DUP1 CALLDATASIZE SUB DUP2 ADD SWAP1 PUSH2 0xB3 SWAP2 SWAP1 PUSH2 0x878 JUMP JUMPDEST PUSH2 0x329 JUMP JUMPDEST PUSH1 0x40 MLOAD PUSH2 0xC8 SWAP5 SWAP4 SWAP3 SWAP2 SWAP1 PUSH2 0x94E JUMP JUMPDEST PUSH1 0x40 MLOAD DUP1 SWAP2 SUB SWAP1 RETURN JUMPDEST PUSH2 0xEB PUSH1 0x4 DUP1 CALLDATASIZE SUB DUP2 ADD SWAP1 PUSH2 0xE6 SWAP2 SWAP1 PUSH2 0x878 JUMP JUMPDEST PUSH2 0x476 JUMP JUMPDEST STOP JUMPDEST PUSH2 0x107 PUSH1 0x4 DUP1 CALLDATASIZE SUB DUP2 ADD SWAP1 PUSH2 0x102 SWAP2 SWAP1 PUSH2 0x878 JUMP JUMPDEST PUSH2 0x594 JUMP JUMPDEST PUSH1 0x40 MLOAD PUSH2 0x114 SWAP2 SWAP1 PUSH2 0x9A1 JUMP JUMPDEST PUSH1 0x40 MLOAD DUP1 SWAP2 SUB SWAP1 RETURN JUMPDEST PUSH2 0x125 PUSH2 0x605 JUMP JUMPDEST PUSH1 0x40 MLOAD PUSH2 0x132 SWAP2 SWAP1 PUSH2 0x9FD JUMP JUMPDEST PUSH1 0x40 MLOAD DUP1 SWAP2 SUB SWAP1 RETURN JUMPDEST PUSH2 0x143 PUSH2 0x629 JUMP JUMPDEST PUSH1 0x40 MLOAD PUSH2 0x150 SWAP2 SWAP1 PUSH2 0x9A1 JUMP JUMPDEST PUSH1 0x40 MLOAD DUP1 SWAP2 SUB SWAP1 RETURN JUMPDEST PUSH2 0x173 PUSH1 0x4 DUP1 CALLDATASIZE SUB DUP2 ADD SWAP1 PUSH2 0x16E SWAP2 SWAP1 PUSH2 0xA18 JUMP JUMPDEST PUSH2 0x62F JUMP JUMPDEST PUSH1 0x40 MLOAD PUSH2 0x180 SWAP2 SWAP1 PUSH2 0x9A1 JUMP JUMPDEST PUSH1 0x40 MLOAD DUP1 SWAP2 SUB SWAP1 RETURN JUMPDEST PUSH1 0x0 DUP1 SLOAD SWAP1 PUSH2 0x100 EXP SWAP1 DIV PUSH20 0xFFFFFFFFFFFFFFFFFFFFFFFFFFFFFFFFFFFFFFFF AND PUSH20 0xFFFFFFFFFFFFFFFFFFFFFFFFFFFFFFFFFFFFFFFF AND CALLER PUSH20 0xFFFFFFFFFFFFFFFFFFFFFFFFFFFFFFFFFFFFFFFF AND EQ PUSH2 0x217 JUMPI PUSH1 0x40 MLOAD PUSH32 0x8C379A000000000000000000000000000000000000000000000000000000000 DUP2 MSTORE PUSH1 0x4 ADD PUSH2 0x20E SWAP1 PUSH2 0xAD3 JUMP JUMPDEST PUSH1 0x40 MLOAD DUP1 SWAP2 SUB SWAP1 REVERT JUMPDEST PUSH1 0x3 PUSH1 0x0 DUP2 SLOAD DUP1 SWAP3 SWAP2 SWAP1 PUSH2 0x22A SWAP1 PUSH2 0xB22 JUMP JUMPDEST SWAP2 SWAP1 POP SSTORE POP PUSH1 0x40 MLOAD DUP1 PUSH1 0x80 ADD PUSH1 0x40 MSTORE DUP1 DUP5 DUP2 MSTORE PUSH1 0x20 ADD DUP4 DUP2 MSTORE PUSH1 0x20 ADD PUSH1 0x1 ISZERO ISZERO DUP2 MSTORE PUSH1 0x20 ADD DUP3 DUP2 MSTORE POP PUSH1 0x1 PUSH1 0x0 PUSH1 0x3 SLOAD DUP2 MSTORE PUSH1 0x20 ADD SWAP1 DUP2 MSTORE PUSH1 0x20 ADD PUSH1 0x0 KECCAK256 PUSH1 0x0 DUP3 ADD MLOAD DUP2 PUSH1 0x0 ADD SWAP1 DUP2 PUSH2 0x27D SWAP2 SWAP1 PUSH2 0xD76 JUMP JUMPDEST POP PUSH1 0x20 DUP3 ADD MLOAD DUP2 PUSH1 0x1 ADD SWAP1 DUP2 PUSH2 0x293 SWAP2 SWAP1 PUSH2 0xD76 JUMP JUMPDEST POP PUSH1 0x40 DUP3 ADD MLOAD DUP2 PUSH1 0x2 ADD PUSH1 0x0 PUSH2 0x100 EXP DUP2 SLOAD DUP2 PUSH1 0xFF MUL NOT AND SWAP1 DUP4 ISZERO ISZERO MUL OR SWAP1 SSTORE POP PUSH1 0x60 DUP3 ADD MLOAD DUP2 PUSH1 0x3 ADD SSTORE SWAP1 POP POP PUSH1 0x3 SLOAD PUSH1 0x2 DUP5 PUSH1 0x40 MLOAD PUSH2 0x2D4 SWAP2 SWAP1 PUSH2 0xE84 JUMP JUMPDEST SWAP1 DUP2 MSTORE PUSH1 0x20 ADD PUSH1 0x40 MLOAD DUP1 SWAP2 SUB SWAP1 KECCAK256 DUP2 SWAP1 SSTORE POP PUSH1 0x3 SLOAD PUSH32 0xF0FCAAD7067CAB5360BC9A949EF7219D84C55A5C85FC70B87FEB39E9C6538DEF DUP5 DUP5 DUP5 PUSH1 0x40 MLOAD PUSH2 0x31C SWAP4 SWAP3 SWAP2 SWAP1 PUSH2 0xE9B JUMP JUMPDEST PUSH1 0x40 MLOAD DUP1 SWAP2 SUB SWAP1 LOG2 POP POP POP JUMP JUMPDEST PUSH1 0x1 PUSH1 0x20 MSTORE DUP1 PUSH1 0x0 MSTORE PUSH1 0x40 PUSH1 0x0 KECCAK256 PUSH1 0x0 SWAP2 POP SWAP1 POP DUP1 PUSH1 0x0 ADD DUP1 SLOAD PUSH2 0x34C SWAP1 PUSH2 0xB99 JUMP JUMPDEST DUP1 PUSH1 0x1F ADD PUSH1 0x20 DUP1 SWAP2 DIV MUL PUSH1 0x20 ADD PUSH1 0x40 MLOAD SWAP1 DUP2 ADD PUSH1 0x40 MSTORE DUP1 SWAP3 SWAP2 SWAP1 DUP2 DUP2 MSTORE PUSH1 0x20 ADD DUP3 DUP1 SLOAD PUSH2 0x378 SWAP1 PUSH2 0xB99 JUMP JUMPDEST DUP1 ISZERO PUSH2 0x3C5 JUMPI DUP1 PUSH1 0x1F LT PUSH2 0x39A JUMPI PUSH2 0x100 DUP1 DUP4 SLOAD DIV MUL DUP4 MSTORE SWAP2 PUSH1 0x20 ADD SWAP2 PUSH2 0x3C5 JUMP JUMPDEST DUP3 ADD SWAP2 SWAP1 PUSH1 0x0 MSTORE PUSH1 0x20 PUSH1 0x0 KECCAK256 SWAP1 JUMPDEST DUP2 SLOAD DUP2 MSTORE SWAP1 PUSH1 0x1 ADD SWAP1 PUSH1 0x20 ADD DUP1 DUP4 GT PUSH2 0x3A8 JUMPI DUP3 SWAP1 SUB PUSH1 0x1F AND DUP3 ADD SWAP2 JUMPDEST POP POP POP POP POP SWAP1 DUP1 PUSH1 0x1 ADD DUP1 SLOAD PUSH2 0x3DA SWAP1 PUSH2 0xB99 JUMP JUMPDEST DUP1 PUSH1 0x1F ADD PUSH1 0x20 DUP1 SWAP2 DIV MUL PUSH1 0x20 ADD PUSH1 0x40 MLOAD SWAP1 DUP2 ADD PUSH1 0x40 MSTORE DUP1 SWAP3 SWAP2 SWAP1 DUP2 DUP2 MSTORE PUSH1 0x20 ADD DUP3 DUP1 SLOAD PUSH2 0x406 SWAP1 PUSH2 0xB99 JUMP JUMPDEST DUP1 ISZERO PUSH2 0x453 JUMPI DUP1 PUSH1 0x1F LT PUSH2 0x428 JUMPI PUSH2 0x100 DUP1 DUP4 SLOAD DIV MUL DUP4 MSTORE SWAP2 PUSH1 0x20 ADD SWAP2 PUSH2 0x453 JUMP JUMPDEST DUP3 ADD SWAP2 SWAP1 PUSH1 0x0 MSTORE PUSH1 0x20 PUSH1 0x0 KECCAK256 SWAP1 JUMPDEST DUP2 SLOAD DUP2 MSTORE SWAP1 PUSH1 0x1 ADD SWAP1 PUSH1 0x20 ADD DUP1 DUP4 GT PUSH2 0x436 JUMPI DUP3 SWAP1 SUB PUSH1 0x1F AND DUP3 ADD SWAP2 JUMPDEST POP POP POP POP POP SWAP1 DUP1 PUSH1 0x2 ADD PUSH1 0x0 SWAP1 SLOAD SWAP1 PUSH2 0x100 EXP SWAP1 DIV PUSH1 0xFF AND SWAP1 DUP1 PUSH1 0x3 ADD SLOAD SWAP1 POP DUP5 JUMP JUMPDEST PUSH1 0x3 SLOAD DUP2 GT ISZERO DUP1 ISZERO PUSH2 0x488 JUMPI POP PUSH1 0x0 DUP2 GT JUMPDEST PUSH2 0x4C7 JUMPI PUSH1 0x40 MLOAD PUSH32 0x8C379A000000000000000000000000000000000000000000000000000000000 DUP2 MSTORE PUSH1 0x4 ADD PUSH2 0x4BE SWAP1 PUSH2 0xF2C JUMP JUMPDEST PUSH1 0x40 MLOAD DUP1 SWAP2 SUB SWAP1 REVERT JUMPDEST PUSH1 0x1 PUSH1 0x0 DUP3 DUP2 MSTORE PUSH1 0x20 ADD SWAP1 DUP2 MSTORE PUSH1 0x20 ADD PUSH1 0x0 KECCAK256 PUSH1 0x2 ADD PUSH1 0x0 SWAP1 SLOAD SWAP1 PUSH2 0x100 EXP SWAP1 DIV PUSH1 0xFF AND PUSH2 0x52A JUMPI PUSH1 0x40 MLOAD PUSH32 0x8C379A000000000000000000000000000000000000000000000000000000000 DUP2 MSTORE PUSH1 0x4 ADD PUSH2 0x521 SWAP1 PUSH2 0xF98 JUMP JUMPDEST PUSH1 0x40 MLOAD DUP1 SWAP2 SUB SWAP1 REVERT JUMPDEST PUSH1 0x0 PUSH1 0x1 PUSH1 0x0 DUP4 DUP2 MSTORE PUSH1 0x20 ADD SWAP1 DUP2 MSTORE PUSH1 0x20 ADD PUSH1 0x0 KECCAK256 PUSH1 0x2 ADD PUSH1 0x0 PUSH2 0x100 EXP DUP2 SLOAD DUP2 PUSH1 0xFF MUL NOT AND SWAP1 DUP4 ISZERO ISZERO MUL OR SWAP1 SSTORE POP DUP1 PUSH32 0x7534124779D4D1EAF9CABBA5F94B2B281856ABA81C295CDE4C9E69483B04B8CC CALLER PUSH1 0x40 MLOAD PUSH2 0x589 SWAP2 SWAP1 PUSH2 0x9FD JUMP JUMPDEST PUSH1 0x40 MLOAD DUP1 SWAP2 SUB SWAP1 LOG2 POP JUMP JUMPDEST PUSH1 0x0 PUSH1 0x3 SLOAD DUP3 GT ISZERO DUP1 ISZERO PUSH2 0x5A8 JUMPI POP PUSH1 0x0 DUP3 GT JUMPDEST PUSH2 0x5E7 JUMPI PUSH1 0x40 MLOAD PUSH32 0x8C379A000000000000000000000000000000000000000000000000000000000 DUP2 MSTORE PUSH1 0x4 ADD PUSH2 0x5DE SWAP1 PUSH2 0xF2C JUMP JUMPDEST PUSH1 0x40 MLOAD DUP1 SWAP2 SUB SWAP1 REVERT JUMPDEST PUSH1 0x1 PUSH1 0x0 DUP4 DUP2 MSTORE PUSH1 0x20 ADD SWAP1 DUP2 MSTORE PUSH1 0x20 ADD PUSH1 0x0 KECCAK256 PUSH1 0x3 ADD SLOAD SWAP1 POP SWAP2 SWAP1 POP JUMP JUMPDEST PUSH1 0x0 DUP1 SLOAD SWAP1 PUSH2 0x100 EXP SWAP1 DIV PUSH20 0xFFFFFFFFFFFFFFFFFFFFFFFFFFFFFFFFFFFFFFFF AND DUP2 JUMP JUMPDEST PUSH1 0x3 SLOAD DUP2 JUMP JUMPDEST PUSH1 0x2 DUP2 DUP1 MLOAD PUSH1 0x20 DUP2 ADD DUP3 ADD DUP1 MLOAD DUP5 DUP3 MSTORE PUSH1 0x20 DUP4 ADD PUSH1 0x20 DUP6 ADD KECCAK256 DUP2 DUP4 MSTORE DUP1 SWAP6 POP POP POP POP POP POP PUSH1 0x0 SWAP2 POP SWAP1 POP SLOAD DUP2 JUMP JUMPDEST PUSH1 0x0 PUSH1 0x40 MLOAD SWAP1 POP SWAP1 JUMP JUMPDEST PUSH1 0x0 DUP1 REVERT JUMPDEST PUSH1 0x0 DUP1 REVERT JUMPDEST PUSH1 0x0 DUP1 REVERT JUMPDEST PUSH1 0x0 DUP1 REVERT JUMPDEST PUSH1 0x0 PUSH1 0x1F NOT PUSH1 0x1F DUP4 ADD AND SWAP1 POP SWAP2 SWAP1 POP JUMP JUMPDEST PUSH32 0x4E487B7100000000000000000000000000000000000000000000000000000000 PUSH1 0x0 MSTORE PUSH1 0x41 PUSH1 0x4 MSTORE PUSH1 0x24 PUSH1 0x0 REVERT JUMPDEST PUSH2 0x6C4 DUP3 PUSH2 0x67B JUMP JUMPDEST DUP2 ADD DUP2 DUP2 LT PUSH8 0xFFFFFFFFFFFFFFFF DUP3 GT OR ISZERO PUSH2 0x6E3 JUMPI PUSH2 0x6E2 PUSH2 0x68C JUMP JUMPDEST JUMPDEST DUP1 PUSH1 0x40 MSTORE POP POP POP JUMP JUMPDEST PUSH1 0x0 PUSH2 0x6F6 PUSH2 0x65D JUMP JUMPDEST SWAP1 POP PUSH2 0x702 DUP3 DUP3 PUSH2 0x6BB JUMP JUMPDEST SWAP2 SWAP1 POP JUMP JUMPDEST PUSH1 0x0 PUSH8 0xFFFFFFFFFFFFFFFF DUP3 GT ISZERO PUSH2 0x722 JUMPI PUSH2 0x721 PUSH2 0x68C JUMP JUMPDEST JUMPDEST PUSH2 0x72B DUP3 PUSH2 0x67B JUMP JUMPDEST SWAP1 POP PUSH1 0x20 DUP2 ADD SWAP1 POP SWAP2 SWAP1 POP JUMP JUMPDEST DUP3 DUP2 DUP4 CALLDATACOPY PUSH1 0x0 DUP4 DUP4 ADD MSTORE POP POP POP JUMP JUMPDEST PUSH1 0x0 PUSH2 0x75A PUSH2 0x755 DUP5 PUSH2 0x707 JUMP JUMPDEST PUSH2 0x6EC JUMP JUMPDEST SWAP1 POP DUP3 DUP2 MSTORE PUSH1 0x20 DUP2 ADD DUP5 DUP5 DUP5 ADD GT ISZERO PUSH2 0x776 JUMPI PUSH2 0x775 PUSH2 0x676 JUMP JUMPDEST JUMPDEST PUSH2 0x781 DUP5 DUP3 DUP6 PUSH2 0x738 JUMP JUMPDEST POP SWAP4 SWAP3 POP POP POP JUMP JUMPDEST PUSH1 0x0 DUP3 PUSH1 0x1F DUP4 ADD SLT PUSH2 0x79E JUMPI PUSH2 0x79D PUSH2 0x671 JUMP JUMPDEST JUMPDEST DUP2 CALLDATALOAD PUSH2 0x7AE DUP5 DUP3 PUSH1 0x20 DUP7 ADD PUSH2 0x747 JUMP JUMPDEST SWAP2 POP POP SWAP3 SWAP2 POP POP JUMP JUMPDEST PUSH1 0x0 DUP2 SWAP1 POP SWAP2 SWAP1 POP JUMP JUMPDEST PUSH2 0x7CA DUP2 PUSH2 0x7B7 JUMP JUMPDEST DUP2 EQ PUSH2 0x7D5 JUMPI PUSH1 0x0 DUP1 REVERT JUMPDEST POP JUMP JUMPDEST PUSH1 0x0 DUP2 CALLDATALOAD SWAP1 POP PUSH2 0x7E7 DUP2 PUSH2 0x7C1 JUMP JUMPDEST SWAP3 SWAP2 POP POP JUMP JUMPDEST PUSH1 0x0 DUP1 PUSH1 0x0 PUSH1 0x60 DUP5 DUP7 SUB SLT ISZERO PUSH2 0x806 JUMPI PUSH2 0x805 PUSH2 0x667 JUMP JUMPDEST JUMPDEST PUSH1 0x0 DUP5 ADD CALLDATALOAD PUSH8 0xFFFFFFFFFFFFFFFF DUP2 GT ISZERO PUSH2 0x824 JUMPI PUSH2 0x823 PUSH2 0x66C JUMP JUMPDEST JUMPDEST PUSH2 0x830 DUP7 DUP3 DUP8 ADD PUSH2 0x789 JUMP JUMPDEST SWAP4 POP POP PUSH1 0x20 DUP5 ADD CALLDATALOAD PUSH8 0xFFFFFFFFFFFFFFFF DUP2 GT ISZERO PUSH2 0x851 JUMPI PUSH2 0x850 PUSH2 0x66C JUMP JUMPDEST JUMPDEST PUSH2 0x85D DUP7 DUP3 DUP8 ADD PUSH2 0x789 JUMP JUMPDEST SWAP3 POP POP PUSH1 0x40 PUSH2 0x86E DUP7 DUP3 DUP8 ADD PUSH2 0x7D8 JUMP JUMPDEST SWAP2 POP POP SWAP3 POP SWAP3 POP SWAP3 JUMP JUMPDEST PUSH1 0x0 PUSH1 0x20 DUP3 DUP5 SUB SLT ISZERO PUSH2 0x88E JUMPI PUSH2 0x88D PUSH2 0x667 JUMP JUMPDEST JUMPDEST PUSH1 0x0 PUSH2 0x89C DUP5 DUP3 DUP6 ADD PUSH2 0x7D8 JUMP JUMPDEST SWAP2 POP POP SWAP3 SWAP2 POP POP JUMP JUMPDEST PUSH1 0x0 DUP2 MLOAD SWAP1 POP SWAP2 SWAP1 POP JUMP JUMPDEST PUSH1 0x0 DUP3 DUP3 MSTORE PUSH1 0x20 DUP3 ADD SWAP1 POP SWAP3 SWAP2 POP POP JUMP JUMPDEST PUSH1 0x0 JUMPDEST DUP4 DUP2 LT ISZERO PUSH2 0x8DF JUMPI DUP1 DUP3 ADD MLOAD DUP2 DUP5 ADD MSTORE PUSH1 0x20 DUP2 ADD SWAP1 POP PUSH2 0x8C4 JUMP JUMPDEST PUSH1 0x0 DUP5 DUP5 ADD MSTORE POP POP POP POP JUMP JUMPDEST PUSH1 0x0 PUSH2 0x8F6 DUP3 PUSH2 0x8A5 JUMP JUMPDEST PUSH2 0x900 DUP2 DUP6 PUSH2 0x8B0 JUMP JUMPDEST SWAP4 POP PUSH2 0x910 DUP2 DUP6 PUSH1 0x20 DUP7 ADD PUSH2 0x8C1 JUMP JUMPDEST PUSH2 0x919 DUP2 PUSH2 0x67B JUMP JUMPDEST DUP5 ADD SWAP2 POP POP SWAP3 SWAP2 POP POP JUMP JUMPDEST PUSH1 0x0 DUP2 ISZERO ISZERO SWAP1 POP SWAP2 SWAP1 POP JUMP JUMPDEST PUSH2 0x939 DUP2 PUSH2 0x924 JUMP JUMPDEST DUP3 MSTORE POP POP JUMP JUMPDEST PUSH2 0x948 DUP2 PUSH2 0x7B7 JUMP JUMPDEST DUP3 MSTORE POP POP JUMP JUMPDEST PUSH1 0x0 PUSH1 0x80 DUP3 ADD SWAP1 POP DUP2 DUP2 SUB PUSH1 0x0 DUP4 ADD MSTORE PUSH2 0x968 DUP2 DUP8 PUSH2 0x8EB JUMP JUMPDEST SWAP1 POP DUP2 DUP2 SUB PUSH1 0x20 DUP4 ADD MSTORE PUSH2 0x97C DUP2 DUP7 PUSH2 0x8EB JUMP JUMPDEST SWAP1 POP PUSH2 0x98B PUSH1 0x40 DUP4 ADD DUP6 PUSH2 0x930 JUMP JUMPDEST PUSH2 0x998 PUSH1 0x60 DUP4 ADD DUP5 PUSH2 0x93F JUMP JUMPDEST SWAP6 SWAP5 POP POP POP POP POP JUMP JUMPDEST PUSH1 0x0 PUSH1 0x20 DUP3 ADD SWAP1 POP PUSH2 0x9B6 PUSH1 0x0 DUP4 ADD DUP5 PUSH2 0x93F JUMP JUMPDEST SWAP3 SWAP2 POP POP JUMP JUMPDEST PUSH1 0x0 PUSH20 0xFFFFFFFFFFFFFFFFFFFFFFFFFFFFFFFFFFFFFFFF DUP3 AND SWAP1 POP SWAP2 SWAP1 POP JUMP JUMPDEST PUSH1 0x0 PUSH2 0x9E7 DUP3 PUSH2 0x9BC JUMP JUMPDEST SWAP1 POP SWAP2 SWAP1 POP JUMP JUMPDEST PUSH2 0x9F7 DUP2 PUSH2 0x9DC JUMP JUMPDEST DUP3 MSTORE POP POP JUMP JUMPDEST PUSH1 0x0 PUSH1 0x20 DUP3 ADD SWAP1 POP PUSH2 0xA12 PUSH1 0x0 DUP4 ADD DUP5 PUSH2 0x9EE JUMP JUMPDEST SWAP3 SWAP2 POP POP JUMP JUMPDEST PUSH1 0x0 PUSH1 0x20 DUP3 DUP5 SUB SLT ISZERO PUSH2 0xA2E JUMPI PUSH2 0xA2D PUSH2 0x667 JUMP JUMPDEST JUMPDEST PUSH1 0x0 DUP3 ADD CALLDATALOAD PUSH8 0xFFFFFFFFFFFFFFFF DUP2 GT ISZERO PUSH2 0xA4C JUMPI PUSH2 0xA4B PUSH2 0x66C JUMP JUMPDEST JUMPDEST PUSH2 0xA58 DUP5 DUP3 DUP6 ADD PUSH2 0x789 JUMP JUMPDEST SWAP2 POP POP SWAP3 SWAP2 POP POP JUMP JUMPDEST PUSH32 0x5365756C206C652070726F707269657461697265207065757420656666656374 PUSH1 0x0 DUP3 ADD MSTORE PUSH32 0x75657220636574746520616374696F6E00000000000000000000000000000000 PUSH1 0x20 DUP3 ADD MSTORE POP JUMP JUMPDEST PUSH1 0x0 PUSH2 0xABD PUSH1 0x30 DUP4 PUSH2 0x8B0 JUMP JUMPDEST SWAP2 POP PUSH2 0xAC8 DUP3 PUSH2 0xA61 JUMP JUMPDEST PUSH1 0x40 DUP3 ADD SWAP1 POP SWAP2 SWAP1 POP JUMP JUMPDEST PUSH1 0x0 PUSH1 0x20 DUP3 ADD SWAP1 POP DUP2 DUP2 SUB PUSH1 0x0 DUP4 ADD MSTORE PUSH2 0xAEC DUP2 PUSH2 0xAB0 JUMP JUMPDEST SWAP1 POP SWAP2 SWAP1 POP JUMP JUMPDEST PUSH32 0x4E487B7100000000000000000000000000000000000000000000000000000000 PUSH1 0x0 MSTORE PUSH1 0x11 PUSH1 0x4 MSTORE PUSH1 0x24 PUSH1 0x0 REVERT JUMPDEST PUSH1 0x0 PUSH2 0xB2D DUP3 PUSH2 0x7B7 JUMP JUMPDEST SWAP2 POP PUSH32 0xFFFFFFFFFFFFFFFFFFFFFFFFFFFFFFFFFFFFFFFFFFFFFFFFFFFFFFFFFFFFFFFF DUP3 SUB PUSH2 0xB5F JUMPI PUSH2 0xB5E PUSH2 0xAF3 JUMP JUMPDEST JUMPDEST PUSH1 0x1 DUP3 ADD SWAP1 POP SWAP2 SWAP1 POP JUMP JUMPDEST PUSH32 0x4E487B7100000000000000000000000000000000000000000000000000000000 PUSH1 0x0 MSTORE PUSH1 0x22 PUSH1 0x4 MSTORE PUSH1 0x24 PUSH1 0x0 REVERT JUMPDEST PUSH1 0x0 PUSH1 0x2 DUP3 DIV SWAP1 POP PUSH1 0x1 DUP3 AND DUP1 PUSH2 0xBB1 JUMPI PUSH1 0x7F DUP3 AND SWAP2 POP JUMPDEST PUSH1 0x20 DUP3 LT DUP2 SUB PUSH2 0xBC4 JUMPI PUSH2 0xBC3 PUSH2 0xB6A JUMP JUMPDEST JUMPDEST POP SWAP2 SWAP1 POP JUMP JUMPDEST PUSH1 0x0 DUP2 SWAP1 POP DUP2 PUSH1 0x0 MSTORE PUSH1 0x20 PUSH1 0x0 KECCAK256 SWAP1 POP SWAP2 SWAP1 POP JUMP JUMPDEST PUSH1 0x0 PUSH1 0x20 PUSH1 0x1F DUP4 ADD DIV SWAP1 POP SWAP2 SWAP1 POP JUMP JUMPDEST PUSH1 0x0 DUP3 DUP3 SHL SWAP1 POP SWAP3 SWAP2 POP POP JUMP JUMPDEST PUSH1 0x0 PUSH1 0x8 DUP4 MUL PUSH2 0xC2C PUSH32 0xFFFFFFFFFFFFFFFFFFFFFFFFFFFFFFFFFFFFFFFFFFFFFFFFFFFFFFFFFFFFFFFF DUP3 PUSH2 0xBEF JUMP JUMPDEST PUSH2 0xC36 DUP7 DUP4 PUSH2 0xBEF JUMP JUMPDEST SWAP6 POP DUP1 NOT DUP5 AND SWAP4 POP DUP1 DUP7 AND DUP5 OR SWAP3 POP POP POP SWAP4 SWAP3 POP POP POP JUMP JUMPDEST PUSH1 0x0 DUP2 SWAP1 POP SWAP2 SWAP1 POP JUMP JUMPDEST PUSH1 0x0 PUSH2 0xC73 PUSH2 0xC6E PUSH2 0xC69 DUP5 PUSH2 0x7B7 JUMP JUMPDEST PUSH2 0xC4E JUMP JUMPDEST PUSH2 0x7B7 JUMP JUMPDEST SWAP1 POP SWAP2 SWAP1 POP JUMP JUMPDEST PUSH1 0x0 DUP2 SWAP1 POP SWAP2 SWAP1 POP JUMP JUMPDEST PUSH2 0xC8D DUP4 PUSH2 0xC58 JUMP JUMPDEST PUSH2 0xCA1 PUSH2 0xC99 DUP3 PUSH2 0xC7A JUMP JUMPDEST DUP5 DUP5 SLOAD PUSH2 0xBFC JUMP JUMPDEST DUP3 SSTORE POP POP POP POP JUMP JUMPDEST PUSH1 0x0 SWAP1 JUMP JUMPDEST PUSH2 0xCB6 PUSH2 0xCA9 JUMP JUMPDEST PUSH2 0xCC1 DUP2 DUP5 DUP5 PUSH2 0xC84 JUMP JUMPDEST POP POP POP JUMP JUMPDEST JUMPDEST DUP2 DUP2 LT ISZERO PUSH2 0xCE5 JUMPI PUSH2 0xCDA PUSH1 0x0 DUP3 PUSH2 0xCAE JUMP JUMPDEST PUSH1 0x1 DUP2 ADD SWAP1 POP PUSH2 0xCC7 JUMP JUMPDEST POP POP JUMP JUMPDEST PUSH1 0x1F DUP3 GT ISZERO PUSH2 0xD2A JUMPI PUSH2 0xCFB DUP2 PUSH2 0xBCA JUMP JUMPDEST PUSH2 0xD04 DUP5 PUSH2 0xBDF JUMP JUMPDEST DUP2 ADD PUSH1 0x20 DUP6 LT ISZERO PUSH2 0xD13 JUMPI DUP2 SWAP1 POP JUMPDEST PUSH2 0xD27 PUSH2 0xD1F DUP6 PUSH2 0xBDF JUMP JUMPDEST DUP4 ADD DUP3 PUSH2 0xCC6 JUMP JUMPDEST POP POP JUMPDEST POP POP POP JUMP JUMPDEST PUSH1 0x0 DUP3 DUP3 SHR SWAP1 POP SWAP3 SWAP2 POP POP JUMP JUMPDEST PUSH1 0x0 PUSH2 0xD4D PUSH1 0x0 NOT DUP5 PUSH1 0x8 MUL PUSH2 0xD2F JUMP JUMPDEST NOT DUP1 DUP4 AND SWAP2 POP POP SWAP3 SWAP2 POP POP JUMP JUMPDEST PUSH1 0x0 PUSH2 0xD66 DUP4 DUP4 PUSH2 0xD3C JUMP JUMPDEST SWAP2 POP DUP3 PUSH1 0x2 MUL DUP3 OR SWAP1 POP SWAP3 SWAP2 POP POP JUMP JUMPDEST PUSH2 0xD7F DUP3 PUSH2 0x8A5 JUMP JUMPDEST PUSH8 0xFFFFFFFFFFFFFFFF DUP2 GT ISZERO PUSH2 0xD98 JUMPI PUSH2 0xD97 PUSH2 0x68C JUMP JUMPDEST JUMPDEST PUSH2 0xDA2 DUP3 SLOAD PUSH2 0xB99 JUMP JUMPDEST PUSH2 0xDAD DUP3 DUP3 DUP6 PUSH2 0xCE9 JUMP JUMPDEST PUSH1 0x0 PUSH1 0x20 SWAP1 POP PUSH1 0x1F DUP4 GT PUSH1 0x1 DUP2 EQ PUSH2 0xDE0 JUMPI PUSH1 0x0 DUP5 ISZERO PUSH2 0xDCE JUMPI DUP3 DUP8 ADD MLOAD SWAP1 POP JUMPDEST PUSH2 0xDD8 DUP6 DUP3 PUSH2 0xD5A JUMP JUMPDEST DUP7 SSTORE POP PUSH2 0xE40 JUMP JUMPDEST PUSH1 0x1F NOT DUP5 AND PUSH2 0xDEE DUP7 PUSH2 0xBCA JUMP JUMPDEST PUSH1 0x0 JUMPDEST DUP3 DUP2 LT ISZERO PUSH2 0xE16 JUMPI DUP5 DUP10 ADD MLOAD DUP3 SSTORE PUSH1 0x1 DUP3 ADD SWAP2 POP PUSH1 0x20 DUP6 ADD SWAP5 POP PUSH1 0x20 DUP2 ADD SWAP1 POP PUSH2 0xDF1 JUMP JUMPDEST DUP7 DUP4 LT ISZERO PUSH2 0xE33 JUMPI DUP5 DUP10 ADD MLOAD PUSH2 0xE2F PUSH1 0x1F DUP10 AND DUP3 PUSH2 0xD3C JUMP JUMPDEST DUP4 SSTORE POP JUMPDEST PUSH1 0x1 PUSH1 0x2 DUP9 MUL ADD DUP9 SSTORE POP POP POP JUMPDEST POP POP POP POP POP POP JUMP JUMPDEST PUSH1 0x0 DUP2 SWAP1 POP SWAP3 SWAP2 POP POP JUMP JUMPDEST PUSH1 0x0 PUSH2 0xE5E DUP3 PUSH2 0x8A5 JUMP JUMPDEST PUSH2 0xE68 DUP2 DUP6 PUSH2 0xE48 JUMP JUMPDEST SWAP4 POP PUSH2 0xE78 DUP2 DUP6 PUSH1 0x20 DUP7 ADD PUSH2 0x8C1 JUMP JUMPDEST DUP1 DUP5 ADD SWAP2 POP POP SWAP3 SWAP2 POP POP JUMP JUMPDEST PUSH1 0x0 PUSH2 0xE90 DUP3 DUP5 PUSH2 0xE53 JUMP JUMPDEST SWAP2 POP DUP2 SWAP1 POP SWAP3 SWAP2 POP POP JUMP JUMPDEST PUSH1 0x0 PUSH1 0x60 DUP3 ADD SWAP1 POP DUP2 DUP2 SUB PUSH1 0x0 DUP4 ADD MSTORE PUSH2 0xEB5 DUP2 DUP7 PUSH2 0x8EB JUMP JUMPDEST SWAP1 POP DUP2 DUP2 SUB PUSH1 0x20 DUP4 ADD MSTORE PUSH2 0xEC9 DUP2 DUP6 PUSH2 0x8EB JUMP JUMPDEST SWAP1 POP PUSH2 0xED8 PUSH1 0x40 DUP4 ADD DUP5 PUSH2 0x93F JUMP JUMPDEST SWAP5 SWAP4 POP POP POP POP JUMP JUMPDEST PUSH32 0x4944206465206C6976726520696E76616C696465000000000000000000000000 PUSH1 0x0 DUP3 ADD MSTORE POP JUMP JUMPDEST PUSH1 0x0 PUSH2 0xF16 PUSH1 0x14 DUP4 PUSH2 0x8B0 JUMP JUMPDEST SWAP2 POP PUSH2 0xF21 DUP3 PUSH2 0xEE0 JUMP JUMPDEST PUSH1 0x20 DUP3 ADD SWAP1 POP SWAP2 SWAP1 POP JUMP JUMPDEST PUSH1 0x0 PUSH1 0x20 DUP3 ADD SWAP1 POP DUP2 DUP2 SUB PUSH1 0x0 DUP4 ADD MSTORE PUSH2 0xF45 DUP2 PUSH2 0xF09 JUMP JUMPDEST SWAP1 POP SWAP2 SWAP1 POP JUMP JUMPDEST PUSH32 0x4C65206C69767265206E276573742070617320646973706F6E69626C65000000 PUSH1 0x0 DUP3 ADD MSTORE POP JUMP JUMPDEST PUSH1 0x0 PUSH2 0xF82 PUSH1 0x1D DUP4 PUSH2 0x8B0 JUMP JUMPDEST SWAP2 POP PUSH2 0xF8D DUP3 PUSH2 0xF4C JUMP JUMPDEST PUSH1 0x20 DUP3 ADD SWAP1 POP SWAP2 SWAP1 POP JUMP JUMPDEST PUSH1 0x0 PUSH1 0x20 DUP3 ADD SWAP1 POP DUP2 DUP2 SUB PUSH1 0x0 DUP4 ADD MSTORE PUSH2 0xFB1 DUP2 PUSH2 0xF75 JUMP JUMPDEST SWAP1 POP SWAP2 SWAP1 POP JUMP INVALID LOG2 PUSH5 0x6970667358 0x22 SLT KECCAK256 RETURNDATACOPY GAS PC 0xEA PUSH10 0xA968890A8E54D47EFD1 PUSH21 0x4FE5CC6914205498C4555C1507C191DF64736F6C63 NUMBER STOP ADDMOD SLT STOP CALLER "
				},
				"gasEstimates": {
					"creation": {
						"codeDepositCost": "815600",
						"executionCost": "25117",
						"totalCost": "840717"
					},
					"external": {
						"addBook(string,string,uint256)": "infinite",
						"bookCount()": "2473",
						"bookIdByTitle(string)": "infinite",
						"books(uint256)": "infinite",
						"borrowBook(uint256)": "30813",
						"getPricePerDay(uint256)": "infinite",
						"owner()": "2533"
					}
				},
				"methodIdentifiers": {
					"addBook(string,string,uint256)": "04266224",
					"bookCount()": "b905ad78",
					"bookIdByTitle(string)": "c93c26b6",
					"books(uint256)": "68744046",
					"borrowBook(uint256)": "7e490a9e",
					"getPricePerDay(uint256)": "8735386c",
					"owner()": "8da5cb5b"
				}
			},
			"storageLayout": {
				"storage": [
					{
						"astId": 3,
						"contract": "Library.sol:Library",
						"label": "owner",
						"offset": 0,
						"slot": "0",
						"type": "t_address"
					},
					{
						"astId": 17,
						"contract": "Library.sol:Library",
						"label": "books",
						"offset": 0,
						"slot": "1",
						"type": "t_mapping(t_uint256,t_struct(Book)12_storage)"
					},
					{
						"astId": 21,
						"contract": "Library.sol:Library",
						"label": "bookIdByTitle",
						"offset": 0,
						"slot": "2",
						"type": "t_mapping(t_string_memory_ptr,t_uint256)"
					},
					{
						"astId": 23,
						"contract": "Library.sol:Library",
						"label": "bookCount",
						"offset": 0,
						"slot": "3",
						"type": "t_uint256"
					}
				],
				"types": {
					"t_address": {
						"encoding": "inplace",
						"label": "address",
						"numberOfBytes": "20"
					},
					"t_bool": {
						"encoding": "inplace",
						"label": "bool",
						"numberOfBytes": "1"
					},
					"t_mapping(t_string_memory_ptr,t_uint256)": {
						"encoding": "mapping",
						"key": "t_string_memory_ptr",
						"label": "mapping(string => uint256)",
						"numberOfBytes": "32",
						"value": "t_uint256"
					},
					"t_mapping(t_uint256,t_struct(Book)12_storage)": {
						"encoding": "mapping",
						"key": "t_uint256",
						"label": "mapping(uint256 => struct Library.Book)",
						"numberOfBytes": "32",
						"value": "t_struct(Book)12_storage"
					},
					"t_string_memory_ptr": {
						"encoding": "bytes",
						"label": "string",
						"numberOfBytes": "32"
					},
					"t_string_storage": {
						"encoding": "bytes",
						"label": "string",
						"numberOfBytes": "32"
					},
					"t_struct(Book)12_storage": {
						"encoding": "inplace",
						"label": "struct Library.Book",
						"members": [
							{
								"astId": 5,
								"contract": "Library.sol:Library",
								"label": "title",
								"offset": 0,
								"slot": "0",
								"type": "t_string_storage"
							},
							{
								"astId": 7,
								"contract": "Library.sol:Library",
								"label": "author",
								"offset": 0,
								"slot": "1",
								"type": "t_string_storage"
							},
							{
								"astId": 9,
								"contract": "Library.sol:Library",
								"label": "isAvailable",
								"offset": 0,
								"slot": "2",
								"type": "t_bool"
							},
							{
								"astId": 11,
								"contract": "Library.sol:Library",
								"label": "pricePerDay",
								"offset": 0,
								"slot": "3",
								"type": "t_uint256"
							}
						],
						"numberOfBytes": "128"
					},
					"t_uint256": {
						"encoding": "inplace",
						"label": "uint256",
						"numberOfBytes": "32"
					}
				}
			},
			"userdoc": {
				"kind": "user",
				"methods": {},
				"version": 1
			}
		}
	}
}